{
	"contracts/4_Student.sol": {
		"Student": {
			"abi": [
				{
					"inputs": [
						{
							"internalType": "string",
							"name": "_name",
							"type": "string"
						},
						{
							"internalType": "uint256",
							"name": "_age",
							"type": "uint256"
						}
					],
					"name": "createStudent",
					"outputs": [],
					"stateMutability": "nonpayable",
					"type": "function"
				},
				{
					"inputs": [
						{
							"internalType": "bytes32",
							"name": "_studentId",
							"type": "bytes32"
						}
					],
					"name": "getStudent",
					"outputs": [
						{
							"components": [
								{
									"internalType": "bytes32",
									"name": "studentId",
									"type": "bytes32"
								},
								{
									"internalType": "string",
									"name": "name",
									"type": "string"
								},
								{
									"internalType": "uint256",
									"name": "age",
									"type": "uint256"
								}
							],
							"internalType": "struct Student.Student",
							"name": "",
							"type": "tuple"
						}
					],
					"stateMutability": "view",
					"type": "function"
				},
				{
					"inputs": [
						{
							"internalType": "bytes32",
							"name": "",
							"type": "bytes32"
						}
					],
					"name": "idToStudent",
					"outputs": [
						{
							"internalType": "bytes32",
							"name": "studentId",
							"type": "bytes32"
						},
						{
							"internalType": "string",
							"name": "name",
							"type": "string"
						},
						{
							"internalType": "uint256",
							"name": "age",
							"type": "uint256"
						}
					],
					"stateMutability": "view",
					"type": "function"
				},
				{
					"inputs": [
						{
							"internalType": "uint256",
							"name": "",
							"type": "uint256"
						}
					],
					"name": "students",
					"outputs": [
						{
							"internalType": "bytes32",
							"name": "studentId",
							"type": "bytes32"
						},
						{
							"internalType": "string",
							"name": "name",
							"type": "string"
						},
						{
							"internalType": "uint256",
							"name": "age",
							"type": "uint256"
						}
					],
					"stateMutability": "view",
					"type": "function"
				}
			],
			"devdoc": {
				"kind": "dev",
				"methods": {},
				"version": 1
			},
			"evm": {
				"assembly": "    /* \"contracts/4_Student.sol\":74:982  contract Student{\r... */\n  mstore(0x40, 0x80)\n  callvalue\n  dup1\n  iszero\n  tag_1\n  jumpi\n  0x00\n  dup1\n  revert\ntag_1:\n  pop\n  dataSize(sub_0)\n  dup1\n  dataOffset(sub_0)\n  0x00\n  codecopy\n  0x00\n  return\nstop\n\nsub_0: assembly {\n        /* \"contracts/4_Student.sol\":74:982  contract Student{\r... */\n      mstore(0x40, 0x80)\n      callvalue\n      dup1\n      iszero\n      tag_1\n      jumpi\n      0x00\n      dup1\n      revert\n    tag_1:\n      pop\n      jumpi(tag_2, lt(calldatasize, 0x04))\n      shr(0xe0, calldataload(0x00))\n      dup1\n      0x06ead22e\n      eq\n      tag_3\n      jumpi\n      dup1\n      0x427867a5\n      eq\n      tag_4\n      jumpi\n      dup1\n      0x74a11638\n      eq\n      tag_5\n      jumpi\n      dup1\n      0xaacfbff8\n      eq\n      tag_6\n      jumpi\n    tag_2:\n      0x00\n      dup1\n      revert\n        /* \"contracts/4_Student.sol\":293:318  Student[] public students */\n    tag_3:\n      tag_7\n      0x04\n      dup1\n      calldatasize\n      sub\n      dup2\n      add\n      swap1\n      tag_8\n      swap2\n      swap1\n      tag_9\n      jump\t// in\n    tag_8:\n      tag_10\n      jump\t// in\n    tag_7:\n      mload(0x40)\n      tag_11\n      swap4\n      swap3\n      swap2\n      swap1\n      tag_12\n      jump\t// in\n    tag_11:\n      mload(0x40)\n      dup1\n      swap2\n      sub\n      swap1\n      return\n        /* \"contracts/4_Student.sol\":779:973  function getStudent(bytes32 _studentId) public view returns (Student memory){\r... */\n    tag_4:\n      tag_13\n      0x04\n      dup1\n      calldatasize\n      sub\n      dup2\n      add\n      swap1\n      tag_14\n      swap2\n      swap1\n      tag_15\n      jump\t// in\n    tag_14:\n      tag_16\n      jump\t// in\n    tag_13:\n      mload(0x40)\n      tag_17\n      swap2\n      swap1\n      tag_18\n      jump\t// in\n    tag_17:\n      mload(0x40)\n      dup1\n      swap2\n      sub\n      swap1\n      return\n        /* \"contracts/4_Student.sol\":327:771  function createStudent(string memory _name, uint256 _age) public {\r... */\n    tag_5:\n      tag_19\n      0x04\n      dup1\n      calldatasize\n      sub\n      dup2\n      add\n      swap1\n      tag_20\n      swap2\n      swap1\n      tag_21\n      jump\t// in\n    tag_20:\n      tag_22\n      jump\t// in\n    tag_19:\n      stop\n        /* \"contracts/4_Student.sol\":205:251  mapping(bytes32 => Student) public idToStudent */\n    tag_6:\n      tag_23\n      0x04\n      dup1\n      calldatasize\n      sub\n      dup2\n      add\n      swap1\n      tag_24\n      swap2\n      swap1\n      tag_15\n      jump\t// in\n    tag_24:\n      tag_25\n      jump\t// in\n    tag_23:\n      mload(0x40)\n      tag_26\n      swap4\n      swap3\n      swap2\n      swap1\n      tag_12\n      jump\t// in\n    tag_26:\n      mload(0x40)\n      dup1\n      swap2\n      sub\n      swap1\n      return\n        /* \"contracts/4_Student.sol\":293:318  Student[] public students */\n    tag_10:\n      0x01\n      dup2\n      dup2\n      sload\n      dup2\n      lt\n      tag_27\n      jumpi\n      0x00\n      dup1\n      revert\n    tag_27:\n      swap1\n      0x00\n      mstore\n      keccak256(0x00, 0x20)\n      swap1\n      0x03\n      mul\n      add\n      0x00\n      swap2\n      pop\n      swap1\n      pop\n      dup1\n      0x00\n      add\n      sload\n      swap1\n      dup1\n      0x01\n      add\n      dup1\n      sload\n      tag_29\n      swap1\n      tag_30\n      jump\t// in\n    tag_29:\n      dup1\n      0x1f\n      add\n      0x20\n      dup1\n      swap2\n      div\n      mul\n      0x20\n      add\n      mload(0x40)\n      swap1\n      dup2\n      add\n      0x40\n      mstore\n      dup1\n      swap3\n      swap2\n      swap1\n      dup2\n      dup2\n      mstore\n      0x20\n      add\n      dup3\n      dup1\n      sload\n      tag_31\n      swap1\n      tag_30\n      jump\t// in\n    tag_31:\n      dup1\n      iszero\n      tag_32\n      jumpi\n      dup1\n      0x1f\n      lt\n      tag_33\n      jumpi\n      0x0100\n      dup1\n      dup4\n      sload\n      div\n      mul\n      dup4\n      mstore\n      swap2\n      0x20\n      add\n      swap2\n      jump(tag_32)\n    tag_33:\n      dup3\n      add\n      swap2\n      swap1\n      0x00\n      mstore\n      keccak256(0x00, 0x20)\n      swap1\n    tag_34:\n      dup2\n      sload\n      dup2\n      mstore\n      swap1\n      0x01\n      add\n      swap1\n      0x20\n      add\n      dup1\n      dup4\n      gt\n      tag_34\n      jumpi\n      dup3\n      swap1\n      sub\n      0x1f\n      and\n      dup3\n      add\n      swap2\n    tag_32:\n      pop\n      pop\n      pop\n      pop\n      pop\n      swap1\n      dup1\n      0x02\n      add\n      sload\n      swap1\n      pop\n      dup4\n      jump\t// out\n        /* \"contracts/4_Student.sol\":779:973  function getStudent(bytes32 _studentId) public view returns (Student memory){\r... */\n    tag_16:\n        /* \"contracts/4_Student.sol\":840:854  Student memory */\n      tag_35\n      tag_36\n      jump\t// in\n    tag_35:\n        /* \"contracts/4_Student.sol\":891:914  Student storage student */\n      0x00\n        /* \"contracts/4_Student.sol\":917:928  idToStudent */\n      dup1\n        /* \"contracts/4_Student.sol\":917:940  idToStudent[_studentId] */\n      0x00\n        /* \"contracts/4_Student.sol\":929:939  _studentId */\n      dup5\n        /* \"contracts/4_Student.sol\":917:940  idToStudent[_studentId] */\n      dup2\n      mstore\n      0x20\n      add\n      swap1\n      dup2\n      mstore\n      0x20\n      add\n      0x00\n      keccak256\n        /* \"contracts/4_Student.sol\":891:940  Student storage student = idToStudent[_studentId] */\n      swap1\n      pop\n        /* \"contracts/4_Student.sol\":958:965  student */\n      dup1\n        /* \"contracts/4_Student.sol\":951:965  return student */\n      mload(0x40)\n      dup1\n      0x60\n      add\n      0x40\n      mstore\n      swap1\n      dup2\n      0x00\n      dup3\n      add\n      sload\n      dup2\n      mstore\n      0x20\n      add\n      0x01\n      dup3\n      add\n      dup1\n      sload\n      tag_38\n      swap1\n      tag_30\n      jump\t// in\n    tag_38:\n      dup1\n      0x1f\n      add\n      0x20\n      dup1\n      swap2\n      div\n      mul\n      0x20\n      add\n      mload(0x40)\n      swap1\n      dup2\n      add\n      0x40\n      mstore\n      dup1\n      swap3\n      swap2\n      swap1\n      dup2\n      dup2\n      mstore\n      0x20\n      add\n      dup3\n      dup1\n      sload\n      tag_39\n      swap1\n      tag_30\n      jump\t// in\n    tag_39:\n      dup1\n      iszero\n      tag_40\n      jumpi\n      dup1\n      0x1f\n      lt\n      tag_41\n      jumpi\n      0x0100\n      dup1\n      dup4\n      sload\n      div\n      mul\n      dup4\n      mstore\n      swap2\n      0x20\n      add\n      swap2\n      jump(tag_40)\n    tag_41:\n      dup3\n      add\n      swap2\n      swap1\n      0x00\n      mstore\n      keccak256(0x00, 0x20)\n      swap1\n    tag_42:\n      dup2\n      sload\n      dup2\n      mstore\n      swap1\n      0x01\n      add\n      swap1\n      0x20\n      add\n      dup1\n      dup4\n      gt\n      tag_42\n      jumpi\n      dup3\n      swap1\n      sub\n      0x1f\n      and\n      dup3\n      add\n      swap2\n    tag_40:\n      pop\n      pop\n      pop\n      pop\n      pop\n      dup2\n      mstore\n      0x20\n      add\n      0x02\n      dup3\n      add\n      sload\n      dup2\n      mstore\n      pop\n      pop\n      swap2\n      pop\n      pop\n        /* \"contracts/4_Student.sol\":779:973  function getStudent(bytes32 _studentId) public view returns (Student memory){\r... */\n      swap2\n      swap1\n      pop\n      jump\t// out\n        /* \"contracts/4_Student.sol\":327:771  function createStudent(string memory _name, uint256 _age) public {\r... */\n    tag_22:\n        /* \"contracts/4_Student.sol\":403:425  Student memory student */\n      tag_44\n      tag_36\n      jump\t// in\n    tag_44:\n        /* \"contracts/4_Student.sol\":436:453  bytes32 studentId */\n      0x00\n        /* \"contracts/4_Student.sol\":515:525  msg.sender */\n      caller\n        /* \"contracts/4_Student.sol\":552:556  this */\n      address\n        /* \"contracts/4_Student.sol\":576:581  _name */\n      dup6\n        /* \"contracts/4_Student.sol\":600:604  _age */\n      dup6\n        /* \"contracts/4_Student.sol\":480:619  abi.encodePacked(\r... */\n      add(0x20, mload(0x40))\n      tag_45\n      swap5\n      swap4\n      swap3\n      swap2\n      swap1\n      tag_46\n      jump\t// in\n    tag_45:\n      mload(0x40)\n      0x20\n      dup2\n      dup4\n      sub\n      sub\n      dup2\n      mstore\n      swap1\n      0x40\n      mstore\n        /* \"contracts/4_Student.sol\":456:630  keccak256(\r... */\n      dup1\n      mload\n      swap1\n      0x20\n      add\n      keccak256\n        /* \"contracts/4_Student.sol\":436:630  bytes32 studentId = keccak256(\r... */\n      swap1\n      pop\n        /* \"contracts/4_Student.sol\":661:670  studentId */\n      dup1\n        /* \"contracts/4_Student.sol\":641:648  student */\n      dup3\n        /* \"contracts/4_Student.sol\":641:658  student.studentId */\n      0x00\n      add\n        /* \"contracts/4_Student.sol\":641:670  student.studentId = studentId */\n      dup2\n      dup2\n      mstore\n      pop\n      pop\n        /* \"contracts/4_Student.sol\":696:701  _name */\n      dup4\n        /* \"contracts/4_Student.sol\":681:688  student */\n      dup3\n        /* \"contracts/4_Student.sol\":681:693  student.name */\n      0x20\n      add\n        /* \"contracts/4_Student.sol\":681:701  student.name = _name */\n      dup2\n      swap1\n      mstore\n      pop\n        /* \"contracts/4_Student.sol\":726:730  _age */\n      dup3\n        /* \"contracts/4_Student.sol\":712:719  student */\n      dup3\n        /* \"contracts/4_Student.sol\":712:723  student.age */\n      0x40\n      add\n        /* \"contracts/4_Student.sol\":712:730  student.age = _age */\n      dup2\n      dup2\n      mstore\n      pop\n      pop\n        /* \"contracts/4_Student.sol\":741:749  students */\n      0x01\n        /* \"contracts/4_Student.sol\":755:762  student */\n      dup3\n        /* \"contracts/4_Student.sol\":741:763  students.push(student) */\n      swap1\n      dup1\n      0x01\n      dup2\n      sload\n      add\n      dup1\n      dup3\n      sstore\n      dup1\n      swap2\n      pop\n      pop\n      0x01\n      swap1\n      sub\n      swap1\n      0x00\n      mstore\n      keccak256(0x00, 0x20)\n      swap1\n      0x03\n      mul\n      add\n      0x00\n      swap1\n      swap2\n      swap1\n      swap2\n      swap1\n      swap2\n      pop\n      0x00\n      dup3\n      add\n      mload\n      dup2\n      0x00\n      add\n      sstore\n      0x20\n      dup3\n      add\n      mload\n      dup2\n      0x01\n      add\n      swap1\n      dup1\n      mload\n      swap1\n      0x20\n      add\n      swap1\n      tag_48\n      swap3\n      swap2\n      swap1\n      tag_49\n      jump\t// in\n    tag_48:\n      pop\n      0x40\n      dup3\n      add\n      mload\n      dup2\n      0x02\n      add\n      sstore\n      pop\n      pop\n        /* \"contracts/4_Student.sol\":392:771  {\r... */\n      pop\n      pop\n        /* \"contracts/4_Student.sol\":327:771  function createStudent(string memory _name, uint256 _age) public {\r... */\n      pop\n      pop\n      jump\t// out\n        /* \"contracts/4_Student.sol\":205:251  mapping(bytes32 => Student) public idToStudent */\n    tag_25:\n      mstore(0x20, 0x00)\n      dup1\n      0x00\n      mstore\n      keccak256(0x00, 0x40)\n      0x00\n      swap2\n      pop\n      swap1\n      pop\n      dup1\n      0x00\n      add\n      sload\n      swap1\n      dup1\n      0x01\n      add\n      dup1\n      sload\n      tag_50\n      swap1\n      tag_30\n      jump\t// in\n    tag_50:\n      dup1\n      0x1f\n      add\n      0x20\n      dup1\n      swap2\n      div\n      mul\n      0x20\n      add\n      mload(0x40)\n      swap1\n      dup2\n      add\n      0x40\n      mstore\n      dup1\n      swap3\n      swap2\n      swap1\n      dup2\n      dup2\n      mstore\n      0x20\n      add\n      dup3\n      dup1\n      sload\n      tag_51\n      swap1\n      tag_30\n      jump\t// in\n    tag_51:\n      dup1\n      iszero\n      tag_52\n      jumpi\n      dup1\n      0x1f\n      lt\n      tag_53\n      jumpi\n      0x0100\n      dup1\n      dup4\n      sload\n      div\n      mul\n      dup4\n      mstore\n      swap2\n      0x20\n      add\n      swap2\n      jump(tag_52)\n    tag_53:\n      dup3\n      add\n      swap2\n      swap1\n      0x00\n      mstore\n      keccak256(0x00, 0x20)\n      swap1\n    tag_54:\n      dup2\n      sload\n      dup2\n      mstore\n      swap1\n      0x01\n      add\n      swap1\n      0x20\n      add\n      dup1\n      dup4\n      gt\n      tag_54\n      jumpi\n      dup3\n      swap1\n      sub\n      0x1f\n      and\n      dup3\n      add\n      swap2\n    tag_52:\n      pop\n      pop\n      pop\n      pop\n      pop\n      swap1\n      dup1\n      0x02\n      add\n      sload\n      swap1\n      pop\n      dup4\n      jump\t// out\n    tag_36:\n      mload(0x40)\n      dup1\n      0x60\n      add\n      0x40\n      mstore\n      dup1\n      0x00\n      dup1\n      not\n      and\n      dup2\n      mstore\n      0x20\n      add\n      0x60\n      dup2\n      mstore\n      0x20\n      add\n      0x00\n      dup2\n      mstore\n      pop\n      swap1\n      jump\t// out\n    tag_49:\n      dup3\n      dup1\n      sload\n      tag_55\n      swap1\n      tag_30\n      jump\t// in\n    tag_55:\n      swap1\n      0x00\n      mstore\n      keccak256(0x00, 0x20)\n      swap1\n      0x1f\n      add\n      0x20\n      swap1\n      div\n      dup2\n      add\n      swap3\n      dup3\n      tag_57\n      jumpi\n      0x00\n      dup6\n      sstore\n      jump(tag_56)\n    tag_57:\n      dup3\n      0x1f\n      lt\n      tag_58\n      jumpi\n      dup1\n      mload\n      not(0xff)\n      and\n      dup4\n      dup1\n      add\n      or\n      dup6\n      sstore\n      jump(tag_56)\n    tag_58:\n      dup3\n      dup1\n      add\n      0x01\n      add\n      dup6\n      sstore\n      dup3\n      iszero\n      tag_56\n      jumpi\n      swap2\n      dup3\n      add\n    tag_59:\n      dup3\n      dup2\n      gt\n      iszero\n      tag_60\n      jumpi\n      dup3\n      mload\n      dup3\n      sstore\n      swap2\n      0x20\n      add\n      swap2\n      swap1\n      0x01\n      add\n      swap1\n      jump(tag_59)\n    tag_60:\n    tag_56:\n      pop\n      swap1\n      pop\n      tag_61\n      swap2\n      swap1\n      tag_62\n      jump\t// in\n    tag_61:\n      pop\n      swap1\n      jump\t// out\n    tag_62:\n    tag_63:\n      dup1\n      dup3\n      gt\n      iszero\n      tag_64\n      jumpi\n      0x00\n      dup2\n      0x00\n      swap1\n      sstore\n      pop\n      0x01\n      add\n      jump(tag_63)\n    tag_64:\n      pop\n      swap1\n      jump\t// out\n        /* \"#utility.yul\":7:419   */\n    tag_66:\n        /* \"#utility.yul\":85:90   */\n      0x00\n        /* \"#utility.yul\":110:176   */\n      tag_68\n        /* \"#utility.yul\":126:175   */\n      tag_69\n        /* \"#utility.yul\":168:174   */\n      dup5\n        /* \"#utility.yul\":126:175   */\n      tag_70\n      jump\t// in\n    tag_69:\n        /* \"#utility.yul\":110:176   */\n      tag_71\n      jump\t// in\n    tag_68:\n        /* \"#utility.yul\":101:176   */\n      swap1\n      pop\n        /* \"#utility.yul\":199:205   */\n      dup3\n        /* \"#utility.yul\":192:197   */\n      dup2\n        /* \"#utility.yul\":185:206   */\n      mstore\n        /* \"#utility.yul\":237:241   */\n      0x20\n        /* \"#utility.yul\":230:235   */\n      dup2\n        /* \"#utility.yul\":226:242   */\n      add\n        /* \"#utility.yul\":275:278   */\n      dup5\n        /* \"#utility.yul\":266:272   */\n      dup5\n        /* \"#utility.yul\":261:264   */\n      dup5\n        /* \"#utility.yul\":257:273   */\n      add\n        /* \"#utility.yul\":254:279   */\n      gt\n        /* \"#utility.yul\":251:363   */\n      iszero\n      tag_72\n      jumpi\n        /* \"#utility.yul\":282:361   */\n      tag_73\n      tag_74\n      jump\t// in\n    tag_73:\n        /* \"#utility.yul\":251:363   */\n    tag_72:\n        /* \"#utility.yul\":372:413   */\n      tag_75\n        /* \"#utility.yul\":406:412   */\n      dup5\n        /* \"#utility.yul\":401:404   */\n      dup3\n        /* \"#utility.yul\":396:399   */\n      dup6\n        /* \"#utility.yul\":372:413   */\n      tag_76\n      jump\t// in\n    tag_75:\n        /* \"#utility.yul\":91:419   */\n      pop\n        /* \"#utility.yul\":7:419   */\n      swap4\n      swap3\n      pop\n      pop\n      pop\n      jump\t// out\n        /* \"#utility.yul\":425:564   */\n    tag_77:\n        /* \"#utility.yul\":471:476   */\n      0x00\n        /* \"#utility.yul\":509:515   */\n      dup2\n        /* \"#utility.yul\":496:516   */\n      calldataload\n        /* \"#utility.yul\":487:516   */\n      swap1\n      pop\n        /* \"#utility.yul\":525:558   */\n      tag_79\n        /* \"#utility.yul\":552:557   */\n      dup2\n        /* \"#utility.yul\":525:558   */\n      tag_80\n      jump\t// in\n    tag_79:\n        /* \"#utility.yul\":425:564   */\n      swap3\n      swap2\n      pop\n      pop\n      jump\t// out\n        /* \"#utility.yul\":584:924   */\n    tag_81:\n        /* \"#utility.yul\":640:645   */\n      0x00\n        /* \"#utility.yul\":689:692   */\n      dup3\n        /* \"#utility.yul\":682:686   */\n      0x1f\n        /* \"#utility.yul\":674:680   */\n      dup4\n        /* \"#utility.yul\":670:687   */\n      add\n        /* \"#utility.yul\":666:693   */\n      slt\n        /* \"#utility.yul\":656:778   */\n      tag_83\n      jumpi\n        /* \"#utility.yul\":697:776   */\n      tag_84\n      tag_85\n      jump\t// in\n    tag_84:\n        /* \"#utility.yul\":656:778   */\n    tag_83:\n        /* \"#utility.yul\":814:820   */\n      dup2\n        /* \"#utility.yul\":801:821   */\n      calldataload\n        /* \"#utility.yul\":839:918   */\n      tag_86\n        /* \"#utility.yul\":914:917   */\n      dup5\n        /* \"#utility.yul\":906:912   */\n      dup3\n        /* \"#utility.yul\":899:903   */\n      0x20\n        /* \"#utility.yul\":891:897   */\n      dup7\n        /* \"#utility.yul\":887:904   */\n      add\n        /* \"#utility.yul\":839:918   */\n      tag_66\n      jump\t// in\n    tag_86:\n        /* \"#utility.yul\":830:918   */\n      swap2\n      pop\n        /* \"#utility.yul\":646:924   */\n      pop\n        /* \"#utility.yul\":584:924   */\n      swap3\n      swap2\n      pop\n      pop\n      jump\t// out\n        /* \"#utility.yul\":930:1069   */\n    tag_87:\n        /* \"#utility.yul\":976:981   */\n      0x00\n        /* \"#utility.yul\":1014:1020   */\n      dup2\n        /* \"#utility.yul\":1001:1021   */\n      calldataload\n        /* \"#utility.yul\":992:1021   */\n      swap1\n      pop\n        /* \"#utility.yul\":1030:1063   */\n      tag_89\n        /* \"#utility.yul\":1057:1062   */\n      dup2\n        /* \"#utility.yul\":1030:1063   */\n      tag_90\n      jump\t// in\n    tag_89:\n        /* \"#utility.yul\":930:1069   */\n      swap3\n      swap2\n      pop\n      pop\n      jump\t// out\n        /* \"#utility.yul\":1075:1404   */\n    tag_15:\n        /* \"#utility.yul\":1134:1140   */\n      0x00\n        /* \"#utility.yul\":1183:1185   */\n      0x20\n        /* \"#utility.yul\":1171:1180   */\n      dup3\n        /* \"#utility.yul\":1162:1169   */\n      dup5\n        /* \"#utility.yul\":1158:1181   */\n      sub\n        /* \"#utility.yul\":1154:1186   */\n      slt\n        /* \"#utility.yul\":1151:1270   */\n      iszero\n      tag_92\n      jumpi\n        /* \"#utility.yul\":1189:1268   */\n      tag_93\n      tag_94\n      jump\t// in\n    tag_93:\n        /* \"#utility.yul\":1151:1270   */\n    tag_92:\n        /* \"#utility.yul\":1309:1310   */\n      0x00\n        /* \"#utility.yul\":1334:1387   */\n      tag_95\n        /* \"#utility.yul\":1379:1386   */\n      dup5\n        /* \"#utility.yul\":1370:1376   */\n      dup3\n        /* \"#utility.yul\":1359:1368   */\n      dup6\n        /* \"#utility.yul\":1355:1377   */\n      add\n        /* \"#utility.yul\":1334:1387   */\n      tag_77\n      jump\t// in\n    tag_95:\n        /* \"#utility.yul\":1324:1387   */\n      swap2\n      pop\n        /* \"#utility.yul\":1280:1397   */\n      pop\n        /* \"#utility.yul\":1075:1404   */\n      swap3\n      swap2\n      pop\n      pop\n      jump\t// out\n        /* \"#utility.yul\":1410:2064   */\n    tag_21:\n        /* \"#utility.yul\":1488:1494   */\n      0x00\n        /* \"#utility.yul\":1496:1502   */\n      dup1\n        /* \"#utility.yul\":1545:1547   */\n      0x40\n        /* \"#utility.yul\":1533:1542   */\n      dup4\n        /* \"#utility.yul\":1524:1531   */\n      dup6\n        /* \"#utility.yul\":1520:1543   */\n      sub\n        /* \"#utility.yul\":1516:1548   */\n      slt\n        /* \"#utility.yul\":1513:1632   */\n      iszero\n      tag_97\n      jumpi\n        /* \"#utility.yul\":1551:1630   */\n      tag_98\n      tag_94\n      jump\t// in\n    tag_98:\n        /* \"#utility.yul\":1513:1632   */\n    tag_97:\n        /* \"#utility.yul\":1699:1700   */\n      0x00\n        /* \"#utility.yul\":1688:1697   */\n      dup4\n        /* \"#utility.yul\":1684:1701   */\n      add\n        /* \"#utility.yul\":1671:1702   */\n      calldataload\n        /* \"#utility.yul\":1729:1747   */\n      0xffffffffffffffff\n        /* \"#utility.yul\":1721:1727   */\n      dup2\n        /* \"#utility.yul\":1718:1748   */\n      gt\n        /* \"#utility.yul\":1715:1832   */\n      iszero\n      tag_99\n      jumpi\n        /* \"#utility.yul\":1751:1830   */\n      tag_100\n      tag_101\n      jump\t// in\n    tag_100:\n        /* \"#utility.yul\":1715:1832   */\n    tag_99:\n        /* \"#utility.yul\":1856:1919   */\n      tag_102\n        /* \"#utility.yul\":1911:1918   */\n      dup6\n        /* \"#utility.yul\":1902:1908   */\n      dup3\n        /* \"#utility.yul\":1891:1900   */\n      dup7\n        /* \"#utility.yul\":1887:1909   */\n      add\n        /* \"#utility.yul\":1856:1919   */\n      tag_81\n      jump\t// in\n    tag_102:\n        /* \"#utility.yul\":1846:1919   */\n      swap3\n      pop\n        /* \"#utility.yul\":1642:1929   */\n      pop\n        /* \"#utility.yul\":1968:1970   */\n      0x20\n        /* \"#utility.yul\":1994:2047   */\n      tag_103\n        /* \"#utility.yul\":2039:2046   */\n      dup6\n        /* \"#utility.yul\":2030:2036   */\n      dup3\n        /* \"#utility.yul\":2019:2028   */\n      dup7\n        /* \"#utility.yul\":2015:2037   */\n      add\n        /* \"#utility.yul\":1994:2047   */\n      tag_87\n      jump\t// in\n    tag_103:\n        /* \"#utility.yul\":1984:2047   */\n      swap2\n      pop\n        /* \"#utility.yul\":1939:2057   */\n      pop\n        /* \"#utility.yul\":1410:2064   */\n      swap3\n      pop\n      swap3\n      swap1\n      pop\n      jump\t// out\n        /* \"#utility.yul\":2070:2399   */\n    tag_9:\n        /* \"#utility.yul\":2129:2135   */\n      0x00\n        /* \"#utility.yul\":2178:2180   */\n      0x20\n        /* \"#utility.yul\":2166:2175   */\n      dup3\n        /* \"#utility.yul\":2157:2164   */\n      dup5\n        /* \"#utility.yul\":2153:2176   */\n      sub\n        /* \"#utility.yul\":2149:2181   */\n      slt\n        /* \"#utility.yul\":2146:2265   */\n      iszero\n      tag_105\n      jumpi\n        /* \"#utility.yul\":2184:2263   */\n      tag_106\n      tag_94\n      jump\t// in\n    tag_106:\n        /* \"#utility.yul\":2146:2265   */\n    tag_105:\n        /* \"#utility.yul\":2304:2305   */\n      0x00\n        /* \"#utility.yul\":2329:2382   */\n      tag_107\n        /* \"#utility.yul\":2374:2381   */\n      dup5\n        /* \"#utility.yul\":2365:2371   */\n      dup3\n        /* \"#utility.yul\":2354:2363   */\n      dup6\n        /* \"#utility.yul\":2350:2372   */\n      add\n        /* \"#utility.yul\":2329:2382   */\n      tag_87\n      jump\t// in\n    tag_107:\n        /* \"#utility.yul\":2319:2382   */\n      swap2\n      pop\n        /* \"#utility.yul\":2275:2392   */\n      pop\n        /* \"#utility.yul\":2070:2399   */\n      swap3\n      swap2\n      pop\n      pop\n      jump\t// out\n        /* \"#utility.yul\":2405:2562   */\n    tag_108:\n        /* \"#utility.yul\":2510:2555   */\n      tag_110\n        /* \"#utility.yul\":2530:2554   */\n      tag_111\n        /* \"#utility.yul\":2548:2553   */\n      dup3\n        /* \"#utility.yul\":2530:2554   */\n      tag_112\n      jump\t// in\n    tag_111:\n        /* \"#utility.yul\":2510:2555   */\n      tag_113\n      jump\t// in\n    tag_110:\n        /* \"#utility.yul\":2505:2508   */\n      dup3\n        /* \"#utility.yul\":2498:2556   */\n      mstore\n        /* \"#utility.yul\":2405:2562   */\n      pop\n      pop\n      jump\t// out\n        /* \"#utility.yul\":2568:2676   */\n    tag_114:\n        /* \"#utility.yul\":2645:2669   */\n      tag_116\n        /* \"#utility.yul\":2663:2668   */\n      dup2\n        /* \"#utility.yul\":2645:2669   */\n      tag_117\n      jump\t// in\n    tag_116:\n        /* \"#utility.yul\":2640:2643   */\n      dup3\n        /* \"#utility.yul\":2633:2670   */\n      mstore\n        /* \"#utility.yul\":2568:2676   */\n      pop\n      pop\n      jump\t// out\n        /* \"#utility.yul\":2682:2800   */\n    tag_118:\n        /* \"#utility.yul\":2769:2793   */\n      tag_120\n        /* \"#utility.yul\":2787:2792   */\n      dup2\n        /* \"#utility.yul\":2769:2793   */\n      tag_117\n      jump\t// in\n    tag_120:\n        /* \"#utility.yul\":2764:2767   */\n      dup3\n        /* \"#utility.yul\":2757:2794   */\n      mstore\n        /* \"#utility.yul\":2682:2800   */\n      pop\n      pop\n      jump\t// out\n        /* \"#utility.yul\":2806:3150   */\n    tag_121:\n        /* \"#utility.yul\":2884:2887   */\n      0x00\n        /* \"#utility.yul\":2912:2951   */\n      tag_123\n        /* \"#utility.yul\":2945:2950   */\n      dup3\n        /* \"#utility.yul\":2912:2951   */\n      tag_124\n      jump\t// in\n    tag_123:\n        /* \"#utility.yul\":2967:3028   */\n      tag_125\n        /* \"#utility.yul\":3021:3027   */\n      dup2\n        /* \"#utility.yul\":3016:3019   */\n      dup6\n        /* \"#utility.yul\":2967:3028   */\n      tag_126\n      jump\t// in\n    tag_125:\n        /* \"#utility.yul\":2960:3028   */\n      swap4\n      pop\n        /* \"#utility.yul\":3037:3089   */\n      tag_127\n        /* \"#utility.yul\":3082:3088   */\n      dup2\n        /* \"#utility.yul\":3077:3080   */\n      dup6\n        /* \"#utility.yul\":3070:3074   */\n      0x20\n        /* \"#utility.yul\":3063:3068   */\n      dup7\n        /* \"#utility.yul\":3059:3075   */\n      add\n        /* \"#utility.yul\":3037:3089   */\n      tag_128\n      jump\t// in\n    tag_127:\n        /* \"#utility.yul\":3114:3143   */\n      tag_129\n        /* \"#utility.yul\":3136:3142   */\n      dup2\n        /* \"#utility.yul\":3114:3143   */\n      tag_130\n      jump\t// in\n    tag_129:\n        /* \"#utility.yul\":3109:3112   */\n      dup5\n        /* \"#utility.yul\":3105:3144   */\n      add\n        /* \"#utility.yul\":3098:3144   */\n      swap2\n      pop\n        /* \"#utility.yul\":2888:3150   */\n      pop\n        /* \"#utility.yul\":2806:3150   */\n      swap3\n      swap2\n      pop\n      pop\n      jump\t// out\n        /* \"#utility.yul\":3156:3520   */\n    tag_131:\n        /* \"#utility.yul\":3244:3247   */\n      0x00\n        /* \"#utility.yul\":3272:3311   */\n      tag_133\n        /* \"#utility.yul\":3305:3310   */\n      dup3\n        /* \"#utility.yul\":3272:3311   */\n      tag_124\n      jump\t// in\n    tag_133:\n        /* \"#utility.yul\":3327:3398   */\n      tag_134\n        /* \"#utility.yul\":3391:3397   */\n      dup2\n        /* \"#utility.yul\":3386:3389   */\n      dup6\n        /* \"#utility.yul\":3327:3398   */\n      tag_135\n      jump\t// in\n    tag_134:\n        /* \"#utility.yul\":3320:3398   */\n      swap4\n      pop\n        /* \"#utility.yul\":3407:3459   */\n      tag_136\n        /* \"#utility.yul\":3452:3458   */\n      dup2\n        /* \"#utility.yul\":3447:3450   */\n      dup6\n        /* \"#utility.yul\":3440:3444   */\n      0x20\n        /* \"#utility.yul\":3433:3438   */\n      dup7\n        /* \"#utility.yul\":3429:3445   */\n      add\n        /* \"#utility.yul\":3407:3459   */\n      tag_128\n      jump\t// in\n    tag_136:\n        /* \"#utility.yul\":3484:3513   */\n      tag_137\n        /* \"#utility.yul\":3506:3512   */\n      dup2\n        /* \"#utility.yul\":3484:3513   */\n      tag_130\n      jump\t// in\n    tag_137:\n        /* \"#utility.yul\":3479:3482   */\n      dup5\n        /* \"#utility.yul\":3475:3514   */\n      add\n        /* \"#utility.yul\":3468:3514   */\n      swap2\n      pop\n        /* \"#utility.yul\":3248:3520   */\n      pop\n        /* \"#utility.yul\":3156:3520   */\n      swap3\n      swap2\n      pop\n      pop\n      jump\t// out\n        /* \"#utility.yul\":3526:3903   */\n    tag_138:\n        /* \"#utility.yul\":3632:3635   */\n      0x00\n        /* \"#utility.yul\":3660:3699   */\n      tag_140\n        /* \"#utility.yul\":3693:3698   */\n      dup3\n        /* \"#utility.yul\":3660:3699   */\n      tag_124\n      jump\t// in\n    tag_140:\n        /* \"#utility.yul\":3715:3804   */\n      tag_141\n        /* \"#utility.yul\":3797:3803   */\n      dup2\n        /* \"#utility.yul\":3792:3795   */\n      dup6\n        /* \"#utility.yul\":3715:3804   */\n      tag_142\n      jump\t// in\n    tag_141:\n        /* \"#utility.yul\":3708:3804   */\n      swap4\n      pop\n        /* \"#utility.yul\":3813:3865   */\n      tag_143\n        /* \"#utility.yul\":3858:3864   */\n      dup2\n        /* \"#utility.yul\":3853:3856   */\n      dup6\n        /* \"#utility.yul\":3846:3850   */\n      0x20\n        /* \"#utility.yul\":3839:3844   */\n      dup7\n        /* \"#utility.yul\":3835:3851   */\n      add\n        /* \"#utility.yul\":3813:3865   */\n      tag_128\n      jump\t// in\n    tag_143:\n        /* \"#utility.yul\":3890:3896   */\n      dup1\n        /* \"#utility.yul\":3885:3888   */\n      dup5\n        /* \"#utility.yul\":3881:3897   */\n      add\n        /* \"#utility.yul\":3874:3897   */\n      swap2\n      pop\n        /* \"#utility.yul\":3636:3903   */\n      pop\n        /* \"#utility.yul\":3526:3903   */\n      swap3\n      swap2\n      pop\n      pop\n      jump\t// out\n        /* \"#utility.yul\":3965:4743   */\n    tag_144:\n        /* \"#utility.yul\":4078:4081   */\n      0x00\n        /* \"#utility.yul\":4114:4118   */\n      0x60\n        /* \"#utility.yul\":4109:4112   */\n      dup4\n        /* \"#utility.yul\":4105:4119   */\n      add\n        /* \"#utility.yul\":4206:4210   */\n      0x00\n        /* \"#utility.yul\":4199:4204   */\n      dup4\n        /* \"#utility.yul\":4195:4211   */\n      add\n        /* \"#utility.yul\":4189:4212   */\n      mload\n        /* \"#utility.yul\":4225:4288   */\n      tag_146\n        /* \"#utility.yul\":4282:4286   */\n      0x00\n        /* \"#utility.yul\":4277:4280   */\n      dup7\n        /* \"#utility.yul\":4273:4287   */\n      add\n        /* \"#utility.yul\":4259:4271   */\n      dup3\n        /* \"#utility.yul\":4225:4288   */\n      tag_114\n      jump\t// in\n    tag_146:\n        /* \"#utility.yul\":4129:4298   */\n      pop\n        /* \"#utility.yul\":4380:4384   */\n      0x20\n        /* \"#utility.yul\":4373:4378   */\n      dup4\n        /* \"#utility.yul\":4369:4385   */\n      add\n        /* \"#utility.yul\":4363:4386   */\n      mload\n        /* \"#utility.yul\":4433:4436   */\n      dup5\n        /* \"#utility.yul\":4427:4431   */\n      dup3\n        /* \"#utility.yul\":4423:4437   */\n      sub\n        /* \"#utility.yul\":4416:4420   */\n      0x20\n        /* \"#utility.yul\":4411:4414   */\n      dup7\n        /* \"#utility.yul\":4407:4421   */\n      add\n        /* \"#utility.yul\":4400:4438   */\n      mstore\n        /* \"#utility.yul\":4459:4532   */\n      tag_147\n        /* \"#utility.yul\":4527:4531   */\n      dup3\n        /* \"#utility.yul\":4513:4525   */\n      dup3\n        /* \"#utility.yul\":4459:4532   */\n      tag_121\n      jump\t// in\n    tag_147:\n        /* \"#utility.yul\":4451:4532   */\n      swap2\n      pop\n        /* \"#utility.yul\":4308:4543   */\n      pop\n        /* \"#utility.yul\":4624:4628   */\n      0x40\n        /* \"#utility.yul\":4617:4622   */\n      dup4\n        /* \"#utility.yul\":4613:4629   */\n      add\n        /* \"#utility.yul\":4607:4630   */\n      mload\n        /* \"#utility.yul\":4643:4706   */\n      tag_148\n        /* \"#utility.yul\":4700:4704   */\n      0x40\n        /* \"#utility.yul\":4695:4698   */\n      dup7\n        /* \"#utility.yul\":4691:4705   */\n      add\n        /* \"#utility.yul\":4677:4689   */\n      dup3\n        /* \"#utility.yul\":4643:4706   */\n      tag_149\n      jump\t// in\n    tag_148:\n        /* \"#utility.yul\":4553:4716   */\n      pop\n        /* \"#utility.yul\":4733:4737   */\n      dup1\n        /* \"#utility.yul\":4726:4737   */\n      swap2\n      pop\n        /* \"#utility.yul\":4083:4743   */\n      pop\n        /* \"#utility.yul\":3965:4743   */\n      swap3\n      swap2\n      pop\n      pop\n      jump\t// out\n        /* \"#utility.yul\":4749:4857   */\n    tag_149:\n        /* \"#utility.yul\":4826:4850   */\n      tag_151\n        /* \"#utility.yul\":4844:4849   */\n      dup2\n        /* \"#utility.yul\":4826:4850   */\n      tag_152\n      jump\t// in\n    tag_151:\n        /* \"#utility.yul\":4821:4824   */\n      dup3\n        /* \"#utility.yul\":4814:4851   */\n      mstore\n        /* \"#utility.yul\":4749:4857   */\n      pop\n      pop\n      jump\t// out\n        /* \"#utility.yul\":4863:4981   */\n    tag_153:\n        /* \"#utility.yul\":4950:4974   */\n      tag_155\n        /* \"#utility.yul\":4968:4973   */\n      dup2\n        /* \"#utility.yul\":4950:4974   */\n      tag_152\n      jump\t// in\n    tag_155:\n        /* \"#utility.yul\":4945:4948   */\n      dup3\n        /* \"#utility.yul\":4938:4975   */\n      mstore\n        /* \"#utility.yul\":4863:4981   */\n      pop\n      pop\n      jump\t// out\n        /* \"#utility.yul\":4987:5144   */\n    tag_156:\n        /* \"#utility.yul\":5092:5137   */\n      tag_158\n        /* \"#utility.yul\":5112:5136   */\n      tag_159\n        /* \"#utility.yul\":5130:5135   */\n      dup3\n        /* \"#utility.yul\":5112:5136   */\n      tag_152\n      jump\t// in\n    tag_159:\n        /* \"#utility.yul\":5092:5137   */\n      tag_160\n      jump\t// in\n    tag_158:\n        /* \"#utility.yul\":5087:5090   */\n      dup3\n        /* \"#utility.yul\":5080:5138   */\n      mstore\n        /* \"#utility.yul\":4987:5144   */\n      pop\n      pop\n      jump\t// out\n        /* \"#utility.yul\":5150:5848   */\n    tag_46:\n        /* \"#utility.yul\":5366:5369   */\n      0x00\n        /* \"#utility.yul\":5381:5456   */\n      tag_162\n        /* \"#utility.yul\":5452:5455   */\n      dup3\n        /* \"#utility.yul\":5443:5449   */\n      dup8\n        /* \"#utility.yul\":5381:5456   */\n      tag_108\n      jump\t// in\n    tag_162:\n        /* \"#utility.yul\":5481:5483   */\n      0x14\n        /* \"#utility.yul\":5476:5479   */\n      dup3\n        /* \"#utility.yul\":5472:5484   */\n      add\n        /* \"#utility.yul\":5465:5484   */\n      swap2\n      pop\n        /* \"#utility.yul\":5494:5569   */\n      tag_163\n        /* \"#utility.yul\":5565:5568   */\n      dup3\n        /* \"#utility.yul\":5556:5562   */\n      dup7\n        /* \"#utility.yul\":5494:5569   */\n      tag_108\n      jump\t// in\n    tag_163:\n        /* \"#utility.yul\":5594:5596   */\n      0x14\n        /* \"#utility.yul\":5589:5592   */\n      dup3\n        /* \"#utility.yul\":5585:5597   */\n      add\n        /* \"#utility.yul\":5578:5597   */\n      swap2\n      pop\n        /* \"#utility.yul\":5614:5709   */\n      tag_164\n        /* \"#utility.yul\":5705:5708   */\n      dup3\n        /* \"#utility.yul\":5696:5702   */\n      dup6\n        /* \"#utility.yul\":5614:5709   */\n      tag_138\n      jump\t// in\n    tag_164:\n        /* \"#utility.yul\":5607:5709   */\n      swap2\n      pop\n        /* \"#utility.yul\":5719:5794   */\n      tag_165\n        /* \"#utility.yul\":5790:5793   */\n      dup3\n        /* \"#utility.yul\":5781:5787   */\n      dup5\n        /* \"#utility.yul\":5719:5794   */\n      tag_156\n      jump\t// in\n    tag_165:\n        /* \"#utility.yul\":5819:5821   */\n      0x20\n        /* \"#utility.yul\":5814:5817   */\n      dup3\n        /* \"#utility.yul\":5810:5822   */\n      add\n        /* \"#utility.yul\":5803:5822   */\n      swap2\n      pop\n        /* \"#utility.yul\":5839:5842   */\n      dup2\n        /* \"#utility.yul\":5832:5842   */\n      swap1\n      pop\n        /* \"#utility.yul\":5150:5848   */\n      swap6\n      swap5\n      pop\n      pop\n      pop\n      pop\n      pop\n      jump\t// out\n        /* \"#utility.yul\":5854:6387   */\n    tag_12:\n        /* \"#utility.yul\":6023:6027   */\n      0x00\n        /* \"#utility.yul\":6061:6063   */\n      0x60\n        /* \"#utility.yul\":6050:6059   */\n      dup3\n        /* \"#utility.yul\":6046:6064   */\n      add\n        /* \"#utility.yul\":6038:6064   */\n      swap1\n      pop\n        /* \"#utility.yul\":6074:6145   */\n      tag_167\n        /* \"#utility.yul\":6142:6143   */\n      0x00\n        /* \"#utility.yul\":6131:6140   */\n      dup4\n        /* \"#utility.yul\":6127:6144   */\n      add\n        /* \"#utility.yul\":6118:6124   */\n      dup7\n        /* \"#utility.yul\":6074:6145   */\n      tag_118\n      jump\t// in\n    tag_167:\n        /* \"#utility.yul\":6192:6201   */\n      dup2\n        /* \"#utility.yul\":6186:6190   */\n      dup2\n        /* \"#utility.yul\":6182:6202   */\n      sub\n        /* \"#utility.yul\":6177:6179   */\n      0x20\n        /* \"#utility.yul\":6166:6175   */\n      dup4\n        /* \"#utility.yul\":6162:6180   */\n      add\n        /* \"#utility.yul\":6155:6203   */\n      mstore\n        /* \"#utility.yul\":6220:6298   */\n      tag_168\n        /* \"#utility.yul\":6293:6297   */\n      dup2\n        /* \"#utility.yul\":6284:6290   */\n      dup6\n        /* \"#utility.yul\":6220:6298   */\n      tag_131\n      jump\t// in\n    tag_168:\n        /* \"#utility.yul\":6212:6298   */\n      swap1\n      pop\n        /* \"#utility.yul\":6308:6380   */\n      tag_169\n        /* \"#utility.yul\":6376:6378   */\n      0x40\n        /* \"#utility.yul\":6365:6374   */\n      dup4\n        /* \"#utility.yul\":6361:6379   */\n      add\n        /* \"#utility.yul\":6352:6358   */\n      dup5\n        /* \"#utility.yul\":6308:6380   */\n      tag_153\n      jump\t// in\n    tag_169:\n        /* \"#utility.yul\":5854:6387   */\n      swap5\n      swap4\n      pop\n      pop\n      pop\n      pop\n      jump\t// out\n        /* \"#utility.yul\":6393:6754   */\n    tag_18:\n        /* \"#utility.yul\":6530:6534   */\n      0x00\n        /* \"#utility.yul\":6568:6570   */\n      0x20\n        /* \"#utility.yul\":6557:6566   */\n      dup3\n        /* \"#utility.yul\":6553:6571   */\n      add\n        /* \"#utility.yul\":6545:6571   */\n      swap1\n      pop\n        /* \"#utility.yul\":6617:6626   */\n      dup2\n        /* \"#utility.yul\":6611:6615   */\n      dup2\n        /* \"#utility.yul\":6607:6627   */\n      sub\n        /* \"#utility.yul\":6603:6604   */\n      0x00\n        /* \"#utility.yul\":6592:6601   */\n      dup4\n        /* \"#utility.yul\":6588:6605   */\n      add\n        /* \"#utility.yul\":6581:6628   */\n      mstore\n        /* \"#utility.yul\":6645:6747   */\n      tag_171\n        /* \"#utility.yul\":6742:6746   */\n      dup2\n        /* \"#utility.yul\":6733:6739   */\n      dup5\n        /* \"#utility.yul\":6645:6747   */\n      tag_144\n      jump\t// in\n    tag_171:\n        /* \"#utility.yul\":6637:6747   */\n      swap1\n      pop\n        /* \"#utility.yul\":6393:6754   */\n      swap3\n      swap2\n      pop\n      pop\n      jump\t// out\n        /* \"#utility.yul\":6760:6889   */\n    tag_71:\n        /* \"#utility.yul\":6794:6800   */\n      0x00\n        /* \"#utility.yul\":6821:6841   */\n      tag_173\n      tag_174\n      jump\t// in\n    tag_173:\n        /* \"#utility.yul\":6811:6841   */\n      swap1\n      pop\n        /* \"#utility.yul\":6850:6883   */\n      tag_175\n        /* \"#utility.yul\":6878:6882   */\n      dup3\n        /* \"#utility.yul\":6870:6876   */\n      dup3\n        /* \"#utility.yul\":6850:6883   */\n      tag_176\n      jump\t// in\n    tag_175:\n        /* \"#utility.yul\":6760:6889   */\n      swap2\n      swap1\n      pop\n      jump\t// out\n        /* \"#utility.yul\":6895:6970   */\n    tag_174:\n        /* \"#utility.yul\":6928:6934   */\n      0x00\n        /* \"#utility.yul\":6961:6963   */\n      0x40\n        /* \"#utility.yul\":6955:6964   */\n      mload\n        /* \"#utility.yul\":6945:6964   */\n      swap1\n      pop\n        /* \"#utility.yul\":6895:6970   */\n      swap1\n      jump\t// out\n        /* \"#utility.yul\":6976:7284   */\n    tag_70:\n        /* \"#utility.yul\":7038:7042   */\n      0x00\n        /* \"#utility.yul\":7128:7146   */\n      0xffffffffffffffff\n        /* \"#utility.yul\":7120:7126   */\n      dup3\n        /* \"#utility.yul\":7117:7147   */\n      gt\n        /* \"#utility.yul\":7114:7170   */\n      iszero\n      tag_179\n      jumpi\n        /* \"#utility.yul\":7150:7168   */\n      tag_180\n      tag_181\n      jump\t// in\n    tag_180:\n        /* \"#utility.yul\":7114:7170   */\n    tag_179:\n        /* \"#utility.yul\":7188:7217   */\n      tag_182\n        /* \"#utility.yul\":7210:7216   */\n      dup3\n        /* \"#utility.yul\":7188:7217   */\n      tag_130\n      jump\t// in\n    tag_182:\n        /* \"#utility.yul\":7180:7217   */\n      swap1\n      pop\n        /* \"#utility.yul\":7272:7276   */\n      0x20\n        /* \"#utility.yul\":7266:7270   */\n      dup2\n        /* \"#utility.yul\":7262:7277   */\n      add\n        /* \"#utility.yul\":7254:7277   */\n      swap1\n      pop\n        /* \"#utility.yul\":6976:7284   */\n      swap2\n      swap1\n      pop\n      jump\t// out\n        /* \"#utility.yul\":7290:7389   */\n    tag_124:\n        /* \"#utility.yul\":7342:7348   */\n      0x00\n        /* \"#utility.yul\":7376:7381   */\n      dup2\n        /* \"#utility.yul\":7370:7382   */\n      mload\n        /* \"#utility.yul\":7360:7382   */\n      swap1\n      pop\n        /* \"#utility.yul\":7290:7389   */\n      swap2\n      swap1\n      pop\n      jump\t// out\n        /* \"#utility.yul\":7395:7554   */\n    tag_126:\n        /* \"#utility.yul\":7469:7480   */\n      0x00\n        /* \"#utility.yul\":7503:7509   */\n      dup3\n        /* \"#utility.yul\":7498:7501   */\n      dup3\n        /* \"#utility.yul\":7491:7510   */\n      mstore\n        /* \"#utility.yul\":7543:7547   */\n      0x20\n        /* \"#utility.yul\":7538:7541   */\n      dup3\n        /* \"#utility.yul\":7534:7548   */\n      add\n        /* \"#utility.yul\":7519:7548   */\n      swap1\n      pop\n        /* \"#utility.yul\":7395:7554   */\n      swap3\n      swap2\n      pop\n      pop\n      jump\t// out\n        /* \"#utility.yul\":7560:7729   */\n    tag_135:\n        /* \"#utility.yul\":7644:7655   */\n      0x00\n        /* \"#utility.yul\":7678:7684   */\n      dup3\n        /* \"#utility.yul\":7673:7676   */\n      dup3\n        /* \"#utility.yul\":7666:7685   */\n      mstore\n        /* \"#utility.yul\":7718:7722   */\n      0x20\n        /* \"#utility.yul\":7713:7716   */\n      dup3\n        /* \"#utility.yul\":7709:7723   */\n      add\n        /* \"#utility.yul\":7694:7723   */\n      swap1\n      pop\n        /* \"#utility.yul\":7560:7729   */\n      swap3\n      swap2\n      pop\n      pop\n      jump\t// out\n        /* \"#utility.yul\":7735:7883   */\n    tag_142:\n        /* \"#utility.yul\":7837:7848   */\n      0x00\n        /* \"#utility.yul\":7874:7877   */\n      dup2\n        /* \"#utility.yul\":7859:7877   */\n      swap1\n      pop\n        /* \"#utility.yul\":7735:7883   */\n      swap3\n      swap2\n      pop\n      pop\n      jump\t// out\n        /* \"#utility.yul\":7889:7985   */\n    tag_112:\n        /* \"#utility.yul\":7926:7933   */\n      0x00\n        /* \"#utility.yul\":7955:7979   */\n      tag_188\n        /* \"#utility.yul\":7973:7978   */\n      dup3\n        /* \"#utility.yul\":7955:7979   */\n      tag_189\n      jump\t// in\n    tag_188:\n        /* \"#utility.yul\":7944:7979   */\n      swap1\n      pop\n        /* \"#utility.yul\":7889:7985   */\n      swap2\n      swap1\n      pop\n      jump\t// out\n        /* \"#utility.yul\":7991:8068   */\n    tag_117:\n        /* \"#utility.yul\":8028:8035   */\n      0x00\n        /* \"#utility.yul\":8057:8062   */\n      dup2\n        /* \"#utility.yul\":8046:8062   */\n      swap1\n      pop\n        /* \"#utility.yul\":7991:8068   */\n      swap2\n      swap1\n      pop\n      jump\t// out\n        /* \"#utility.yul\":8074:8200   */\n    tag_189:\n        /* \"#utility.yul\":8111:8118   */\n      0x00\n        /* \"#utility.yul\":8151:8193   */\n      0xffffffffffffffffffffffffffffffffffffffff\n        /* \"#utility.yul\":8144:8149   */\n      dup3\n        /* \"#utility.yul\":8140:8194   */\n      and\n        /* \"#utility.yul\":8129:8194   */\n      swap1\n      pop\n        /* \"#utility.yul\":8074:8200   */\n      swap2\n      swap1\n      pop\n      jump\t// out\n        /* \"#utility.yul\":8206:8283   */\n    tag_152:\n        /* \"#utility.yul\":8243:8250   */\n      0x00\n        /* \"#utility.yul\":8272:8277   */\n      dup2\n        /* \"#utility.yul\":8261:8277   */\n      swap1\n      pop\n        /* \"#utility.yul\":8206:8283   */\n      swap2\n      swap1\n      pop\n      jump\t// out\n        /* \"#utility.yul\":8289:8443   */\n    tag_76:\n        /* \"#utility.yul\":8373:8379   */\n      dup3\n        /* \"#utility.yul\":8368:8371   */\n      dup2\n        /* \"#utility.yul\":8363:8366   */\n      dup4\n        /* \"#utility.yul\":8350:8380   */\n      calldatacopy\n        /* \"#utility.yul\":8435:8436   */\n      0x00\n        /* \"#utility.yul\":8426:8432   */\n      dup4\n        /* \"#utility.yul\":8421:8424   */\n      dup4\n        /* \"#utility.yul\":8417:8433   */\n      add\n        /* \"#utility.yul\":8410:8437   */\n      mstore\n        /* \"#utility.yul\":8289:8443   */\n      pop\n      pop\n      pop\n      jump\t// out\n        /* \"#utility.yul\":8449:8756   */\n    tag_128:\n        /* \"#utility.yul\":8517:8518   */\n      0x00\n        /* \"#utility.yul\":8527:8640   */\n    tag_195:\n        /* \"#utility.yul\":8541:8547   */\n      dup4\n        /* \"#utility.yul\":8538:8539   */\n      dup2\n        /* \"#utility.yul\":8535:8548   */\n      lt\n        /* \"#utility.yul\":8527:8640   */\n      iszero\n      tag_197\n      jumpi\n        /* \"#utility.yul\":8626:8627   */\n      dup1\n        /* \"#utility.yul\":8621:8624   */\n      dup3\n        /* \"#utility.yul\":8617:8628   */\n      add\n        /* \"#utility.yul\":8611:8629   */\n      mload\n        /* \"#utility.yul\":8607:8608   */\n      dup2\n        /* \"#utility.yul\":8602:8605   */\n      dup5\n        /* \"#utility.yul\":8598:8609   */\n      add\n        /* \"#utility.yul\":8591:8630   */\n      mstore\n        /* \"#utility.yul\":8563:8565   */\n      0x20\n        /* \"#utility.yul\":8560:8561   */\n      dup2\n        /* \"#utility.yul\":8556:8566   */\n      add\n        /* \"#utility.yul\":8551:8566   */\n      swap1\n      pop\n        /* \"#utility.yul\":8527:8640   */\n      jump(tag_195)\n    tag_197:\n        /* \"#utility.yul\":8658:8664   */\n      dup4\n        /* \"#utility.yul\":8655:8656   */\n      dup2\n        /* \"#utility.yul\":8652:8665   */\n      gt\n        /* \"#utility.yul\":8649:8750   */\n      iszero\n      tag_198\n      jumpi\n        /* \"#utility.yul\":8738:8739   */\n      0x00\n        /* \"#utility.yul\":8729:8735   */\n      dup5\n        /* \"#utility.yul\":8724:8727   */\n      dup5\n        /* \"#utility.yul\":8720:8736   */\n      add\n        /* \"#utility.yul\":8713:8740   */\n      mstore\n        /* \"#utility.yul\":8649:8750   */\n    tag_198:\n        /* \"#utility.yul\":8498:8756   */\n      pop\n        /* \"#utility.yul\":8449:8756   */\n      pop\n      pop\n      pop\n      jump\t// out\n        /* \"#utility.yul\":8762:9082   */\n    tag_30:\n        /* \"#utility.yul\":8806:8812   */\n      0x00\n        /* \"#utility.yul\":8843:8844   */\n      0x02\n        /* \"#utility.yul\":8837:8841   */\n      dup3\n        /* \"#utility.yul\":8833:8845   */\n      div\n        /* \"#utility.yul\":8823:8845   */\n      swap1\n      pop\n        /* \"#utility.yul\":8890:8891   */\n      0x01\n        /* \"#utility.yul\":8884:8888   */\n      dup3\n        /* \"#utility.yul\":8880:8892   */\n      and\n        /* \"#utility.yul\":8911:8929   */\n      dup1\n        /* \"#utility.yul\":8901:8982   */\n      tag_200\n      jumpi\n        /* \"#utility.yul\":8967:8971   */\n      0x7f\n        /* \"#utility.yul\":8959:8965   */\n      dup3\n        /* \"#utility.yul\":8955:8972   */\n      and\n        /* \"#utility.yul\":8945:8972   */\n      swap2\n      pop\n        /* \"#utility.yul\":8901:8982   */\n    tag_200:\n        /* \"#utility.yul\":9029:9031   */\n      0x20\n        /* \"#utility.yul\":9021:9027   */\n      dup3\n        /* \"#utility.yul\":9018:9032   */\n      lt\n        /* \"#utility.yul\":8998:9016   */\n      dup2\n        /* \"#utility.yul\":8995:9033   */\n      eq\n        /* \"#utility.yul\":8992:9076   */\n      iszero\n      tag_201\n      jumpi\n        /* \"#utility.yul\":9048:9066   */\n      tag_202\n      tag_203\n      jump\t// in\n    tag_202:\n        /* \"#utility.yul\":8992:9076   */\n    tag_201:\n        /* \"#utility.yul\":8813:9082   */\n      pop\n        /* \"#utility.yul\":8762:9082   */\n      swap2\n      swap1\n      pop\n      jump\t// out\n        /* \"#utility.yul\":9088:9369   */\n    tag_176:\n        /* \"#utility.yul\":9171:9198   */\n      tag_205\n        /* \"#utility.yul\":9193:9197   */\n      dup3\n        /* \"#utility.yul\":9171:9198   */\n      tag_130\n      jump\t// in\n    tag_205:\n        /* \"#utility.yul\":9163:9169   */\n      dup2\n        /* \"#utility.yul\":9159:9199   */\n      add\n        /* \"#utility.yul\":9301:9307   */\n      dup2\n        /* \"#utility.yul\":9289:9299   */\n      dup2\n        /* \"#utility.yul\":9286:9308   */\n      lt\n        /* \"#utility.yul\":9265:9283   */\n      0xffffffffffffffff\n        /* \"#utility.yul\":9253:9263   */\n      dup3\n        /* \"#utility.yul\":9250:9284   */\n      gt\n        /* \"#utility.yul\":9247:9309   */\n      or\n        /* \"#utility.yul\":9244:9332   */\n      iszero\n      tag_206\n      jumpi\n        /* \"#utility.yul\":9312:9330   */\n      tag_207\n      tag_181\n      jump\t// in\n    tag_207:\n        /* \"#utility.yul\":9244:9332   */\n    tag_206:\n        /* \"#utility.yul\":9352:9362   */\n      dup1\n        /* \"#utility.yul\":9348:9350   */\n      0x40\n        /* \"#utility.yul\":9341:9363   */\n      mstore\n        /* \"#utility.yul\":9131:9369   */\n      pop\n        /* \"#utility.yul\":9088:9369   */\n      pop\n      pop\n      jump\t// out\n        /* \"#utility.yul\":9375:9475   */\n    tag_113:\n        /* \"#utility.yul\":9414:9421   */\n      0x00\n        /* \"#utility.yul\":9443:9469   */\n      tag_209\n        /* \"#utility.yul\":9463:9468   */\n      dup3\n        /* \"#utility.yul\":9443:9469   */\n      tag_210\n      jump\t// in\n    tag_209:\n        /* \"#utility.yul\":9432:9469   */\n      swap1\n      pop\n        /* \"#utility.yul\":9375:9475   */\n      swap2\n      swap1\n      pop\n      jump\t// out\n        /* \"#utility.yul\":9481:9575   */\n    tag_210:\n        /* \"#utility.yul\":9520:9527   */\n      0x00\n        /* \"#utility.yul\":9549:9569   */\n      tag_212\n        /* \"#utility.yul\":9563:9568   */\n      dup3\n        /* \"#utility.yul\":9549:9569   */\n      tag_213\n      jump\t// in\n    tag_212:\n        /* \"#utility.yul\":9538:9569   */\n      swap1\n      pop\n        /* \"#utility.yul\":9481:9575   */\n      swap2\n      swap1\n      pop\n      jump\t// out\n        /* \"#utility.yul\":9581:9660   */\n    tag_160:\n        /* \"#utility.yul\":9620:9627   */\n      0x00\n        /* \"#utility.yul\":9649:9654   */\n      dup2\n        /* \"#utility.yul\":9638:9654   */\n      swap1\n      pop\n        /* \"#utility.yul\":9581:9660   */\n      swap2\n      swap1\n      pop\n      jump\t// out\n        /* \"#utility.yul\":9666:9846   */\n    tag_203:\n        /* \"#utility.yul\":9714:9791   */\n      0x4e487b7100000000000000000000000000000000000000000000000000000000\n        /* \"#utility.yul\":9711:9712   */\n      0x00\n        /* \"#utility.yul\":9704:9792   */\n      mstore\n        /* \"#utility.yul\":9811:9815   */\n      0x22\n        /* \"#utility.yul\":9808:9809   */\n      0x04\n        /* \"#utility.yul\":9801:9816   */\n      mstore\n        /* \"#utility.yul\":9835:9839   */\n      0x24\n        /* \"#utility.yul\":9832:9833   */\n      0x00\n        /* \"#utility.yul\":9825:9840   */\n      revert\n        /* \"#utility.yul\":9852:10032   */\n    tag_181:\n        /* \"#utility.yul\":9900:9977   */\n      0x4e487b7100000000000000000000000000000000000000000000000000000000\n        /* \"#utility.yul\":9897:9898   */\n      0x00\n        /* \"#utility.yul\":9890:9978   */\n      mstore\n        /* \"#utility.yul\":9997:10001   */\n      0x41\n        /* \"#utility.yul\":9994:9995   */\n      0x04\n        /* \"#utility.yul\":9987:10002   */\n      mstore\n        /* \"#utility.yul\":10021:10025   */\n      0x24\n        /* \"#utility.yul\":10018:10019   */\n      0x00\n        /* \"#utility.yul\":10011:10026   */\n      revert\n        /* \"#utility.yul\":10038:10155   */\n    tag_85:\n        /* \"#utility.yul\":10147:10148   */\n      0x00\n        /* \"#utility.yul\":10144:10145   */\n      dup1\n        /* \"#utility.yul\":10137:10149   */\n      revert\n        /* \"#utility.yul\":10161:10278   */\n    tag_74:\n        /* \"#utility.yul\":10270:10271   */\n      0x00\n        /* \"#utility.yul\":10267:10268   */\n      dup1\n        /* \"#utility.yul\":10260:10272   */\n      revert\n        /* \"#utility.yul\":10284:10401   */\n    tag_101:\n        /* \"#utility.yul\":10393:10394   */\n      0x00\n        /* \"#utility.yul\":10390:10391   */\n      dup1\n        /* \"#utility.yul\":10383:10395   */\n      revert\n        /* \"#utility.yul\":10407:10524   */\n    tag_94:\n        /* \"#utility.yul\":10516:10517   */\n      0x00\n        /* \"#utility.yul\":10513:10514   */\n      dup1\n        /* \"#utility.yul\":10506:10518   */\n      revert\n        /* \"#utility.yul\":10530:10632   */\n    tag_130:\n        /* \"#utility.yul\":10571:10577   */\n      0x00\n        /* \"#utility.yul\":10622:10624   */\n      0x1f\n        /* \"#utility.yul\":10618:10625   */\n      not\n        /* \"#utility.yul\":10613:10615   */\n      0x1f\n        /* \"#utility.yul\":10606:10611   */\n      dup4\n        /* \"#utility.yul\":10602:10616   */\n      add\n        /* \"#utility.yul\":10598:10626   */\n      and\n        /* \"#utility.yul\":10588:10626   */\n      swap1\n      pop\n        /* \"#utility.yul\":10530:10632   */\n      swap2\n      swap1\n      pop\n      jump\t// out\n        /* \"#utility.yul\":10638:10732   */\n    tag_213:\n        /* \"#utility.yul\":10671:10679   */\n      0x00\n        /* \"#utility.yul\":10719:10724   */\n      dup2\n        /* \"#utility.yul\":10715:10717   */\n      0x60\n        /* \"#utility.yul\":10711:10725   */\n      shl\n        /* \"#utility.yul\":10690:10725   */\n      swap1\n      pop\n        /* \"#utility.yul\":10638:10732   */\n      swap2\n      swap1\n      pop\n      jump\t// out\n        /* \"#utility.yul\":10738:10860   */\n    tag_80:\n        /* \"#utility.yul\":10811:10835   */\n      tag_224\n        /* \"#utility.yul\":10829:10834   */\n      dup2\n        /* \"#utility.yul\":10811:10835   */\n      tag_117\n      jump\t// in\n    tag_224:\n        /* \"#utility.yul\":10804:10809   */\n      dup2\n        /* \"#utility.yul\":10801:10836   */\n      eq\n        /* \"#utility.yul\":10791:10854   */\n      tag_225\n      jumpi\n        /* \"#utility.yul\":10850:10851   */\n      0x00\n        /* \"#utility.yul\":10847:10848   */\n      dup1\n        /* \"#utility.yul\":10840:10852   */\n      revert\n        /* \"#utility.yul\":10791:10854   */\n    tag_225:\n        /* \"#utility.yul\":10738:10860   */\n      pop\n      jump\t// out\n        /* \"#utility.yul\":10866:10988   */\n    tag_90:\n        /* \"#utility.yul\":10939:10963   */\n      tag_227\n        /* \"#utility.yul\":10957:10962   */\n      dup2\n        /* \"#utility.yul\":10939:10963   */\n      tag_152\n      jump\t// in\n    tag_227:\n        /* \"#utility.yul\":10932:10937   */\n      dup2\n        /* \"#utility.yul\":10929:10964   */\n      eq\n        /* \"#utility.yul\":10919:10982   */\n      tag_228\n      jumpi\n        /* \"#utility.yul\":10978:10979   */\n      0x00\n        /* \"#utility.yul\":10975:10976   */\n      dup1\n        /* \"#utility.yul\":10968:10980   */\n      revert\n        /* \"#utility.yul\":10919:10982   */\n    tag_228:\n        /* \"#utility.yul\":10866:10988   */\n      pop\n      jump\t// out\n\n    auxdata: 0xa264697066735822122020c45699701a007d15ddd3bebc13f372293ec9c7b8aa4b1c9876f9c3553da4de64736f6c63430008070033\n}\n",
				"bytecode": {
					"linkReferences": {},
					"object": "608060405234801561001057600080fd5b50610ac1806100206000396000f3fe608060405234801561001057600080fd5b506004361061004c5760003560e01c806306ead22e14610051578063427867a51461008357806374a11638146100b3578063aacfbff8146100cf575b600080fd5b61006b600480360381019061006691906105f2565b610101565b60405161007a939291906107c6565b60405180910390f35b61009d60048036038101906100989190610569565b6101c3565b6040516100aa9190610804565b60405180910390f35b6100cd60048036038101906100c89190610596565b61029b565b005b6100e960048036038101906100e49190610569565b610356565b6040516100f8939291906107c6565b60405180910390f35b6001818154811061011157600080fd5b906000526020600020906003020160009150905080600001549080600101805461013a9061093c565b80601f01602080910402602001604051908101604052809291908181526020018280546101669061093c565b80156101b35780601f10610188576101008083540402835291602001916101b3565b820191906000526020600020905b81548152906001019060200180831161019657829003601f168201915b5050505050908060020154905083565b6101cb610408565b6000806000848152602001908152602001600020905080604051806060016040529081600082015481526020016001820180546102079061093c565b80601f01602080910402602001604051908101604052809291908181526020018280546102339061093c565b80156102805780601f1061025557610100808354040283529160200191610280565b820191906000526020600020905b81548152906001019060200180831161026357829003601f168201915b50505050508152602001600282015481525050915050919050565b6102a3610408565b6000333085856040516020016102bc949392919061077c565b6040516020818303038152906040528051906020012090508082600001818152505083826020018190525082826040018181525050600182908060018154018082558091505060019003906000526020600020906003020160009091909190915060008201518160000155602082015181600101908051906020019061034392919061042c565b5060408201518160020155505050505050565b600060205280600052604060002060009150905080600001549080600101805461037f9061093c565b80601f01602080910402602001604051908101604052809291908181526020018280546103ab9061093c565b80156103f85780601f106103cd576101008083540402835291602001916103f8565b820191906000526020600020905b8154815290600101906020018083116103db57829003601f168201915b5050505050908060020154905083565b60405180606001604052806000801916815260200160608152602001600081525090565b8280546104389061093c565b90600052602060002090601f01602090048101928261045a57600085556104a1565b82601f1061047357805160ff19168380011785556104a1565b828001600101855582156104a1579182015b828111156104a0578251825591602001919060010190610485565b5b5090506104ae91906104b2565b5090565b5b808211156104cb5760008160009055506001016104b3565b5090565b60006104e26104dd8461084b565b610826565b9050828152602081018484840111156104fe576104fd610a30565b5b6105098482856108fa565b509392505050565b60008135905061052081610a5d565b92915050565b600082601f83011261053b5761053a610a2b565b5b813561054b8482602086016104cf565b91505092915050565b60008135905061056381610a74565b92915050565b60006020828403121561057f5761057e610a3a565b5b600061058d84828501610511565b91505092915050565b600080604083850312156105ad576105ac610a3a565b5b600083013567ffffffffffffffff8111156105cb576105ca610a35565b5b6105d785828601610526565b92505060206105e885828601610554565b9150509250929050565b60006020828403121561060857610607610a3a565b5b600061061684828501610554565b91505092915050565b61063061062b826108b4565b61099f565b82525050565b61063f816108c6565b82525050565b61064e816108c6565b82525050565b600061065f8261087c565b6106698185610887565b9350610679818560208601610909565b61068281610a3f565b840191505092915050565b60006106988261087c565b6106a28185610898565b93506106b2818560208601610909565b6106bb81610a3f565b840191505092915050565b60006106d18261087c565b6106db81856108a9565b93506106eb818560208601610909565b80840191505092915050565b600060608301600083015161070f6000860182610636565b50602083015184820360208601526107278282610654565b915050604083015161073c6040860182610747565b508091505092915050565b610750816108f0565b82525050565b61075f816108f0565b82525050565b610776610771826108f0565b6109c3565b82525050565b6000610788828761061f565b601482019150610798828661061f565b6014820191506107a882856106c6565b91506107b48284610765565b60208201915081905095945050505050565b60006060820190506107db6000830186610645565b81810360208301526107ed818561068d565b90506107fc6040830184610756565b949350505050565b6000602082019050818103600083015261081e81846106f7565b905092915050565b6000610830610841565b905061083c828261096e565b919050565b6000604051905090565b600067ffffffffffffffff821115610866576108656109fc565b5b61086f82610a3f565b9050602081019050919050565b600081519050919050565b600082825260208201905092915050565b600082825260208201905092915050565b600081905092915050565b60006108bf826108d0565b9050919050565b6000819050919050565b600073ffffffffffffffffffffffffffffffffffffffff82169050919050565b6000819050919050565b82818337600083830152505050565b60005b8381101561092757808201518184015260208101905061090c565b83811115610936576000848401525b50505050565b6000600282049050600182168061095457607f821691505b60208210811415610968576109676109cd565b5b50919050565b61097782610a3f565b810181811067ffffffffffffffff82111715610996576109956109fc565b5b80604052505050565b60006109aa826109b1565b9050919050565b60006109bc82610a50565b9050919050565b6000819050919050565b7f4e487b7100000000000000000000000000000000000000000000000000000000600052602260045260246000fd5b7f4e487b7100000000000000000000000000000000000000000000000000000000600052604160045260246000fd5b600080fd5b600080fd5b600080fd5b600080fd5b6000601f19601f8301169050919050565b60008160601b9050919050565b610a66816108c6565b8114610a7157600080fd5b50565b610a7d816108f0565b8114610a8857600080fd5b5056fea264697066735822122020c45699701a007d15ddd3bebc13f372293ec9c7b8aa4b1c9876f9c3553da4de64736f6c63430008070033",
					"opcodes": "PUSH1 0x80 PUSH1 0x40 MSTORE CALLVALUE DUP1 ISZERO PUSH2 0x10 JUMPI PUSH1 0x0 DUP1 REVERT JUMPDEST POP PUSH2 0xAC1 DUP1 PUSH2 0x20 PUSH1 0x0 CODECOPY PUSH1 0x0 RETURN INVALID PUSH1 0x80 PUSH1 0x40 MSTORE CALLVALUE DUP1 ISZERO PUSH2 0x10 JUMPI PUSH1 0x0 DUP1 REVERT JUMPDEST POP PUSH1 0x4 CALLDATASIZE LT PUSH2 0x4C JUMPI PUSH1 0x0 CALLDATALOAD PUSH1 0xE0 SHR DUP1 PUSH4 0x6EAD22E EQ PUSH2 0x51 JUMPI DUP1 PUSH4 0x427867A5 EQ PUSH2 0x83 JUMPI DUP1 PUSH4 0x74A11638 EQ PUSH2 0xB3 JUMPI DUP1 PUSH4 0xAACFBFF8 EQ PUSH2 0xCF JUMPI JUMPDEST PUSH1 0x0 DUP1 REVERT JUMPDEST PUSH2 0x6B PUSH1 0x4 DUP1 CALLDATASIZE SUB DUP2 ADD SWAP1 PUSH2 0x66 SWAP2 SWAP1 PUSH2 0x5F2 JUMP JUMPDEST PUSH2 0x101 JUMP JUMPDEST PUSH1 0x40 MLOAD PUSH2 0x7A SWAP4 SWAP3 SWAP2 SWAP1 PUSH2 0x7C6 JUMP JUMPDEST PUSH1 0x40 MLOAD DUP1 SWAP2 SUB SWAP1 RETURN JUMPDEST PUSH2 0x9D PUSH1 0x4 DUP1 CALLDATASIZE SUB DUP2 ADD SWAP1 PUSH2 0x98 SWAP2 SWAP1 PUSH2 0x569 JUMP JUMPDEST PUSH2 0x1C3 JUMP JUMPDEST PUSH1 0x40 MLOAD PUSH2 0xAA SWAP2 SWAP1 PUSH2 0x804 JUMP JUMPDEST PUSH1 0x40 MLOAD DUP1 SWAP2 SUB SWAP1 RETURN JUMPDEST PUSH2 0xCD PUSH1 0x4 DUP1 CALLDATASIZE SUB DUP2 ADD SWAP1 PUSH2 0xC8 SWAP2 SWAP1 PUSH2 0x596 JUMP JUMPDEST PUSH2 0x29B JUMP JUMPDEST STOP JUMPDEST PUSH2 0xE9 PUSH1 0x4 DUP1 CALLDATASIZE SUB DUP2 ADD SWAP1 PUSH2 0xE4 SWAP2 SWAP1 PUSH2 0x569 JUMP JUMPDEST PUSH2 0x356 JUMP JUMPDEST PUSH1 0x40 MLOAD PUSH2 0xF8 SWAP4 SWAP3 SWAP2 SWAP1 PUSH2 0x7C6 JUMP JUMPDEST PUSH1 0x40 MLOAD DUP1 SWAP2 SUB SWAP1 RETURN JUMPDEST PUSH1 0x1 DUP2 DUP2 SLOAD DUP2 LT PUSH2 0x111 JUMPI PUSH1 0x0 DUP1 REVERT JUMPDEST SWAP1 PUSH1 0x0 MSTORE PUSH1 0x20 PUSH1 0x0 KECCAK256 SWAP1 PUSH1 0x3 MUL ADD PUSH1 0x0 SWAP2 POP SWAP1 POP DUP1 PUSH1 0x0 ADD SLOAD SWAP1 DUP1 PUSH1 0x1 ADD DUP1 SLOAD PUSH2 0x13A SWAP1 PUSH2 0x93C JUMP JUMPDEST DUP1 PUSH1 0x1F ADD PUSH1 0x20 DUP1 SWAP2 DIV MUL PUSH1 0x20 ADD PUSH1 0x40 MLOAD SWAP1 DUP2 ADD PUSH1 0x40 MSTORE DUP1 SWAP3 SWAP2 SWAP1 DUP2 DUP2 MSTORE PUSH1 0x20 ADD DUP3 DUP1 SLOAD PUSH2 0x166 SWAP1 PUSH2 0x93C JUMP JUMPDEST DUP1 ISZERO PUSH2 0x1B3 JUMPI DUP1 PUSH1 0x1F LT PUSH2 0x188 JUMPI PUSH2 0x100 DUP1 DUP4 SLOAD DIV MUL DUP4 MSTORE SWAP2 PUSH1 0x20 ADD SWAP2 PUSH2 0x1B3 JUMP JUMPDEST DUP3 ADD SWAP2 SWAP1 PUSH1 0x0 MSTORE PUSH1 0x20 PUSH1 0x0 KECCAK256 SWAP1 JUMPDEST DUP2 SLOAD DUP2 MSTORE SWAP1 PUSH1 0x1 ADD SWAP1 PUSH1 0x20 ADD DUP1 DUP4 GT PUSH2 0x196 JUMPI DUP3 SWAP1 SUB PUSH1 0x1F AND DUP3 ADD SWAP2 JUMPDEST POP POP POP POP POP SWAP1 DUP1 PUSH1 0x2 ADD SLOAD SWAP1 POP DUP4 JUMP JUMPDEST PUSH2 0x1CB PUSH2 0x408 JUMP JUMPDEST PUSH1 0x0 DUP1 PUSH1 0x0 DUP5 DUP2 MSTORE PUSH1 0x20 ADD SWAP1 DUP2 MSTORE PUSH1 0x20 ADD PUSH1 0x0 KECCAK256 SWAP1 POP DUP1 PUSH1 0x40 MLOAD DUP1 PUSH1 0x60 ADD PUSH1 0x40 MSTORE SWAP1 DUP2 PUSH1 0x0 DUP3 ADD SLOAD DUP2 MSTORE PUSH1 0x20 ADD PUSH1 0x1 DUP3 ADD DUP1 SLOAD PUSH2 0x207 SWAP1 PUSH2 0x93C JUMP JUMPDEST DUP1 PUSH1 0x1F ADD PUSH1 0x20 DUP1 SWAP2 DIV MUL PUSH1 0x20 ADD PUSH1 0x40 MLOAD SWAP1 DUP2 ADD PUSH1 0x40 MSTORE DUP1 SWAP3 SWAP2 SWAP1 DUP2 DUP2 MSTORE PUSH1 0x20 ADD DUP3 DUP1 SLOAD PUSH2 0x233 SWAP1 PUSH2 0x93C JUMP JUMPDEST DUP1 ISZERO PUSH2 0x280 JUMPI DUP1 PUSH1 0x1F LT PUSH2 0x255 JUMPI PUSH2 0x100 DUP1 DUP4 SLOAD DIV MUL DUP4 MSTORE SWAP2 PUSH1 0x20 ADD SWAP2 PUSH2 0x280 JUMP JUMPDEST DUP3 ADD SWAP2 SWAP1 PUSH1 0x0 MSTORE PUSH1 0x20 PUSH1 0x0 KECCAK256 SWAP1 JUMPDEST DUP2 SLOAD DUP2 MSTORE SWAP1 PUSH1 0x1 ADD SWAP1 PUSH1 0x20 ADD DUP1 DUP4 GT PUSH2 0x263 JUMPI DUP3 SWAP1 SUB PUSH1 0x1F AND DUP3 ADD SWAP2 JUMPDEST POP POP POP POP POP DUP2 MSTORE PUSH1 0x20 ADD PUSH1 0x2 DUP3 ADD SLOAD DUP2 MSTORE POP POP SWAP2 POP POP SWAP2 SWAP1 POP JUMP JUMPDEST PUSH2 0x2A3 PUSH2 0x408 JUMP JUMPDEST PUSH1 0x0 CALLER ADDRESS DUP6 DUP6 PUSH1 0x40 MLOAD PUSH1 0x20 ADD PUSH2 0x2BC SWAP5 SWAP4 SWAP3 SWAP2 SWAP1 PUSH2 0x77C JUMP JUMPDEST PUSH1 0x40 MLOAD PUSH1 0x20 DUP2 DUP4 SUB SUB DUP2 MSTORE SWAP1 PUSH1 0x40 MSTORE DUP1 MLOAD SWAP1 PUSH1 0x20 ADD KECCAK256 SWAP1 POP DUP1 DUP3 PUSH1 0x0 ADD DUP2 DUP2 MSTORE POP POP DUP4 DUP3 PUSH1 0x20 ADD DUP2 SWAP1 MSTORE POP DUP3 DUP3 PUSH1 0x40 ADD DUP2 DUP2 MSTORE POP POP PUSH1 0x1 DUP3 SWAP1 DUP1 PUSH1 0x1 DUP2 SLOAD ADD DUP1 DUP3 SSTORE DUP1 SWAP2 POP POP PUSH1 0x1 SWAP1 SUB SWAP1 PUSH1 0x0 MSTORE PUSH1 0x20 PUSH1 0x0 KECCAK256 SWAP1 PUSH1 0x3 MUL ADD PUSH1 0x0 SWAP1 SWAP2 SWAP1 SWAP2 SWAP1 SWAP2 POP PUSH1 0x0 DUP3 ADD MLOAD DUP2 PUSH1 0x0 ADD SSTORE PUSH1 0x20 DUP3 ADD MLOAD DUP2 PUSH1 0x1 ADD SWAP1 DUP1 MLOAD SWAP1 PUSH1 0x20 ADD SWAP1 PUSH2 0x343 SWAP3 SWAP2 SWAP1 PUSH2 0x42C JUMP JUMPDEST POP PUSH1 0x40 DUP3 ADD MLOAD DUP2 PUSH1 0x2 ADD SSTORE POP POP POP POP POP POP JUMP JUMPDEST PUSH1 0x0 PUSH1 0x20 MSTORE DUP1 PUSH1 0x0 MSTORE PUSH1 0x40 PUSH1 0x0 KECCAK256 PUSH1 0x0 SWAP2 POP SWAP1 POP DUP1 PUSH1 0x0 ADD SLOAD SWAP1 DUP1 PUSH1 0x1 ADD DUP1 SLOAD PUSH2 0x37F SWAP1 PUSH2 0x93C JUMP JUMPDEST DUP1 PUSH1 0x1F ADD PUSH1 0x20 DUP1 SWAP2 DIV MUL PUSH1 0x20 ADD PUSH1 0x40 MLOAD SWAP1 DUP2 ADD PUSH1 0x40 MSTORE DUP1 SWAP3 SWAP2 SWAP1 DUP2 DUP2 MSTORE PUSH1 0x20 ADD DUP3 DUP1 SLOAD PUSH2 0x3AB SWAP1 PUSH2 0x93C JUMP JUMPDEST DUP1 ISZERO PUSH2 0x3F8 JUMPI DUP1 PUSH1 0x1F LT PUSH2 0x3CD JUMPI PUSH2 0x100 DUP1 DUP4 SLOAD DIV MUL DUP4 MSTORE SWAP2 PUSH1 0x20 ADD SWAP2 PUSH2 0x3F8 JUMP JUMPDEST DUP3 ADD SWAP2 SWAP1 PUSH1 0x0 MSTORE PUSH1 0x20 PUSH1 0x0 KECCAK256 SWAP1 JUMPDEST DUP2 SLOAD DUP2 MSTORE SWAP1 PUSH1 0x1 ADD SWAP1 PUSH1 0x20 ADD DUP1 DUP4 GT PUSH2 0x3DB JUMPI DUP3 SWAP1 SUB PUSH1 0x1F AND DUP3 ADD SWAP2 JUMPDEST POP POP POP POP POP SWAP1 DUP1 PUSH1 0x2 ADD SLOAD SWAP1 POP DUP4 JUMP JUMPDEST PUSH1 0x40 MLOAD DUP1 PUSH1 0x60 ADD PUSH1 0x40 MSTORE DUP1 PUSH1 0x0 DUP1 NOT AND DUP2 MSTORE PUSH1 0x20 ADD PUSH1 0x60 DUP2 MSTORE PUSH1 0x20 ADD PUSH1 0x0 DUP2 MSTORE POP SWAP1 JUMP JUMPDEST DUP3 DUP1 SLOAD PUSH2 0x438 SWAP1 PUSH2 0x93C JUMP JUMPDEST SWAP1 PUSH1 0x0 MSTORE PUSH1 0x20 PUSH1 0x0 KECCAK256 SWAP1 PUSH1 0x1F ADD PUSH1 0x20 SWAP1 DIV DUP2 ADD SWAP3 DUP3 PUSH2 0x45A JUMPI PUSH1 0x0 DUP6 SSTORE PUSH2 0x4A1 JUMP JUMPDEST DUP3 PUSH1 0x1F LT PUSH2 0x473 JUMPI DUP1 MLOAD PUSH1 0xFF NOT AND DUP4 DUP1 ADD OR DUP6 SSTORE PUSH2 0x4A1 JUMP JUMPDEST DUP3 DUP1 ADD PUSH1 0x1 ADD DUP6 SSTORE DUP3 ISZERO PUSH2 0x4A1 JUMPI SWAP2 DUP3 ADD JUMPDEST DUP3 DUP2 GT ISZERO PUSH2 0x4A0 JUMPI DUP3 MLOAD DUP3 SSTORE SWAP2 PUSH1 0x20 ADD SWAP2 SWAP1 PUSH1 0x1 ADD SWAP1 PUSH2 0x485 JUMP JUMPDEST JUMPDEST POP SWAP1 POP PUSH2 0x4AE SWAP2 SWAP1 PUSH2 0x4B2 JUMP JUMPDEST POP SWAP1 JUMP JUMPDEST JUMPDEST DUP1 DUP3 GT ISZERO PUSH2 0x4CB JUMPI PUSH1 0x0 DUP2 PUSH1 0x0 SWAP1 SSTORE POP PUSH1 0x1 ADD PUSH2 0x4B3 JUMP JUMPDEST POP SWAP1 JUMP JUMPDEST PUSH1 0x0 PUSH2 0x4E2 PUSH2 0x4DD DUP5 PUSH2 0x84B JUMP JUMPDEST PUSH2 0x826 JUMP JUMPDEST SWAP1 POP DUP3 DUP2 MSTORE PUSH1 0x20 DUP2 ADD DUP5 DUP5 DUP5 ADD GT ISZERO PUSH2 0x4FE JUMPI PUSH2 0x4FD PUSH2 0xA30 JUMP JUMPDEST JUMPDEST PUSH2 0x509 DUP5 DUP3 DUP6 PUSH2 0x8FA JUMP JUMPDEST POP SWAP4 SWAP3 POP POP POP JUMP JUMPDEST PUSH1 0x0 DUP2 CALLDATALOAD SWAP1 POP PUSH2 0x520 DUP2 PUSH2 0xA5D JUMP JUMPDEST SWAP3 SWAP2 POP POP JUMP JUMPDEST PUSH1 0x0 DUP3 PUSH1 0x1F DUP4 ADD SLT PUSH2 0x53B JUMPI PUSH2 0x53A PUSH2 0xA2B JUMP JUMPDEST JUMPDEST DUP2 CALLDATALOAD PUSH2 0x54B DUP5 DUP3 PUSH1 0x20 DUP7 ADD PUSH2 0x4CF JUMP JUMPDEST SWAP2 POP POP SWAP3 SWAP2 POP POP JUMP JUMPDEST PUSH1 0x0 DUP2 CALLDATALOAD SWAP1 POP PUSH2 0x563 DUP2 PUSH2 0xA74 JUMP JUMPDEST SWAP3 SWAP2 POP POP JUMP JUMPDEST PUSH1 0x0 PUSH1 0x20 DUP3 DUP5 SUB SLT ISZERO PUSH2 0x57F JUMPI PUSH2 0x57E PUSH2 0xA3A JUMP JUMPDEST JUMPDEST PUSH1 0x0 PUSH2 0x58D DUP5 DUP3 DUP6 ADD PUSH2 0x511 JUMP JUMPDEST SWAP2 POP POP SWAP3 SWAP2 POP POP JUMP JUMPDEST PUSH1 0x0 DUP1 PUSH1 0x40 DUP4 DUP6 SUB SLT ISZERO PUSH2 0x5AD JUMPI PUSH2 0x5AC PUSH2 0xA3A JUMP JUMPDEST JUMPDEST PUSH1 0x0 DUP4 ADD CALLDATALOAD PUSH8 0xFFFFFFFFFFFFFFFF DUP2 GT ISZERO PUSH2 0x5CB JUMPI PUSH2 0x5CA PUSH2 0xA35 JUMP JUMPDEST JUMPDEST PUSH2 0x5D7 DUP6 DUP3 DUP7 ADD PUSH2 0x526 JUMP JUMPDEST SWAP3 POP POP PUSH1 0x20 PUSH2 0x5E8 DUP6 DUP3 DUP7 ADD PUSH2 0x554 JUMP JUMPDEST SWAP2 POP POP SWAP3 POP SWAP3 SWAP1 POP JUMP JUMPDEST PUSH1 0x0 PUSH1 0x20 DUP3 DUP5 SUB SLT ISZERO PUSH2 0x608 JUMPI PUSH2 0x607 PUSH2 0xA3A JUMP JUMPDEST JUMPDEST PUSH1 0x0 PUSH2 0x616 DUP5 DUP3 DUP6 ADD PUSH2 0x554 JUMP JUMPDEST SWAP2 POP POP SWAP3 SWAP2 POP POP JUMP JUMPDEST PUSH2 0x630 PUSH2 0x62B DUP3 PUSH2 0x8B4 JUMP JUMPDEST PUSH2 0x99F JUMP JUMPDEST DUP3 MSTORE POP POP JUMP JUMPDEST PUSH2 0x63F DUP2 PUSH2 0x8C6 JUMP JUMPDEST DUP3 MSTORE POP POP JUMP JUMPDEST PUSH2 0x64E DUP2 PUSH2 0x8C6 JUMP JUMPDEST DUP3 MSTORE POP POP JUMP JUMPDEST PUSH1 0x0 PUSH2 0x65F DUP3 PUSH2 0x87C JUMP JUMPDEST PUSH2 0x669 DUP2 DUP6 PUSH2 0x887 JUMP JUMPDEST SWAP4 POP PUSH2 0x679 DUP2 DUP6 PUSH1 0x20 DUP7 ADD PUSH2 0x909 JUMP JUMPDEST PUSH2 0x682 DUP2 PUSH2 0xA3F JUMP JUMPDEST DUP5 ADD SWAP2 POP POP SWAP3 SWAP2 POP POP JUMP JUMPDEST PUSH1 0x0 PUSH2 0x698 DUP3 PUSH2 0x87C JUMP JUMPDEST PUSH2 0x6A2 DUP2 DUP6 PUSH2 0x898 JUMP JUMPDEST SWAP4 POP PUSH2 0x6B2 DUP2 DUP6 PUSH1 0x20 DUP7 ADD PUSH2 0x909 JUMP JUMPDEST PUSH2 0x6BB DUP2 PUSH2 0xA3F JUMP JUMPDEST DUP5 ADD SWAP2 POP POP SWAP3 SWAP2 POP POP JUMP JUMPDEST PUSH1 0x0 PUSH2 0x6D1 DUP3 PUSH2 0x87C JUMP JUMPDEST PUSH2 0x6DB DUP2 DUP6 PUSH2 0x8A9 JUMP JUMPDEST SWAP4 POP PUSH2 0x6EB DUP2 DUP6 PUSH1 0x20 DUP7 ADD PUSH2 0x909 JUMP JUMPDEST DUP1 DUP5 ADD SWAP2 POP POP SWAP3 SWAP2 POP POP JUMP JUMPDEST PUSH1 0x0 PUSH1 0x60 DUP4 ADD PUSH1 0x0 DUP4 ADD MLOAD PUSH2 0x70F PUSH1 0x0 DUP7 ADD DUP3 PUSH2 0x636 JUMP JUMPDEST POP PUSH1 0x20 DUP4 ADD MLOAD DUP5 DUP3 SUB PUSH1 0x20 DUP7 ADD MSTORE PUSH2 0x727 DUP3 DUP3 PUSH2 0x654 JUMP JUMPDEST SWAP2 POP POP PUSH1 0x40 DUP4 ADD MLOAD PUSH2 0x73C PUSH1 0x40 DUP7 ADD DUP3 PUSH2 0x747 JUMP JUMPDEST POP DUP1 SWAP2 POP POP SWAP3 SWAP2 POP POP JUMP JUMPDEST PUSH2 0x750 DUP2 PUSH2 0x8F0 JUMP JUMPDEST DUP3 MSTORE POP POP JUMP JUMPDEST PUSH2 0x75F DUP2 PUSH2 0x8F0 JUMP JUMPDEST DUP3 MSTORE POP POP JUMP JUMPDEST PUSH2 0x776 PUSH2 0x771 DUP3 PUSH2 0x8F0 JUMP JUMPDEST PUSH2 0x9C3 JUMP JUMPDEST DUP3 MSTORE POP POP JUMP JUMPDEST PUSH1 0x0 PUSH2 0x788 DUP3 DUP8 PUSH2 0x61F JUMP JUMPDEST PUSH1 0x14 DUP3 ADD SWAP2 POP PUSH2 0x798 DUP3 DUP7 PUSH2 0x61F JUMP JUMPDEST PUSH1 0x14 DUP3 ADD SWAP2 POP PUSH2 0x7A8 DUP3 DUP6 PUSH2 0x6C6 JUMP JUMPDEST SWAP2 POP PUSH2 0x7B4 DUP3 DUP5 PUSH2 0x765 JUMP JUMPDEST PUSH1 0x20 DUP3 ADD SWAP2 POP DUP2 SWAP1 POP SWAP6 SWAP5 POP POP POP POP POP JUMP JUMPDEST PUSH1 0x0 PUSH1 0x60 DUP3 ADD SWAP1 POP PUSH2 0x7DB PUSH1 0x0 DUP4 ADD DUP7 PUSH2 0x645 JUMP JUMPDEST DUP2 DUP2 SUB PUSH1 0x20 DUP4 ADD MSTORE PUSH2 0x7ED DUP2 DUP6 PUSH2 0x68D JUMP JUMPDEST SWAP1 POP PUSH2 0x7FC PUSH1 0x40 DUP4 ADD DUP5 PUSH2 0x756 JUMP JUMPDEST SWAP5 SWAP4 POP POP POP POP JUMP JUMPDEST PUSH1 0x0 PUSH1 0x20 DUP3 ADD SWAP1 POP DUP2 DUP2 SUB PUSH1 0x0 DUP4 ADD MSTORE PUSH2 0x81E DUP2 DUP5 PUSH2 0x6F7 JUMP JUMPDEST SWAP1 POP SWAP3 SWAP2 POP POP JUMP JUMPDEST PUSH1 0x0 PUSH2 0x830 PUSH2 0x841 JUMP JUMPDEST SWAP1 POP PUSH2 0x83C DUP3 DUP3 PUSH2 0x96E JUMP JUMPDEST SWAP2 SWAP1 POP JUMP JUMPDEST PUSH1 0x0 PUSH1 0x40 MLOAD SWAP1 POP SWAP1 JUMP JUMPDEST PUSH1 0x0 PUSH8 0xFFFFFFFFFFFFFFFF DUP3 GT ISZERO PUSH2 0x866 JUMPI PUSH2 0x865 PUSH2 0x9FC JUMP JUMPDEST JUMPDEST PUSH2 0x86F DUP3 PUSH2 0xA3F JUMP JUMPDEST SWAP1 POP PUSH1 0x20 DUP2 ADD SWAP1 POP SWAP2 SWAP1 POP JUMP JUMPDEST PUSH1 0x0 DUP2 MLOAD SWAP1 POP SWAP2 SWAP1 POP JUMP JUMPDEST PUSH1 0x0 DUP3 DUP3 MSTORE PUSH1 0x20 DUP3 ADD SWAP1 POP SWAP3 SWAP2 POP POP JUMP JUMPDEST PUSH1 0x0 DUP3 DUP3 MSTORE PUSH1 0x20 DUP3 ADD SWAP1 POP SWAP3 SWAP2 POP POP JUMP JUMPDEST PUSH1 0x0 DUP2 SWAP1 POP SWAP3 SWAP2 POP POP JUMP JUMPDEST PUSH1 0x0 PUSH2 0x8BF DUP3 PUSH2 0x8D0 JUMP JUMPDEST SWAP1 POP SWAP2 SWAP1 POP JUMP JUMPDEST PUSH1 0x0 DUP2 SWAP1 POP SWAP2 SWAP1 POP JUMP JUMPDEST PUSH1 0x0 PUSH20 0xFFFFFFFFFFFFFFFFFFFFFFFFFFFFFFFFFFFFFFFF DUP3 AND SWAP1 POP SWAP2 SWAP1 POP JUMP JUMPDEST PUSH1 0x0 DUP2 SWAP1 POP SWAP2 SWAP1 POP JUMP JUMPDEST DUP3 DUP2 DUP4 CALLDATACOPY PUSH1 0x0 DUP4 DUP4 ADD MSTORE POP POP POP JUMP JUMPDEST PUSH1 0x0 JUMPDEST DUP4 DUP2 LT ISZERO PUSH2 0x927 JUMPI DUP1 DUP3 ADD MLOAD DUP2 DUP5 ADD MSTORE PUSH1 0x20 DUP2 ADD SWAP1 POP PUSH2 0x90C JUMP JUMPDEST DUP4 DUP2 GT ISZERO PUSH2 0x936 JUMPI PUSH1 0x0 DUP5 DUP5 ADD MSTORE JUMPDEST POP POP POP POP JUMP JUMPDEST PUSH1 0x0 PUSH1 0x2 DUP3 DIV SWAP1 POP PUSH1 0x1 DUP3 AND DUP1 PUSH2 0x954 JUMPI PUSH1 0x7F DUP3 AND SWAP2 POP JUMPDEST PUSH1 0x20 DUP3 LT DUP2 EQ ISZERO PUSH2 0x968 JUMPI PUSH2 0x967 PUSH2 0x9CD JUMP JUMPDEST JUMPDEST POP SWAP2 SWAP1 POP JUMP JUMPDEST PUSH2 0x977 DUP3 PUSH2 0xA3F JUMP JUMPDEST DUP2 ADD DUP2 DUP2 LT PUSH8 0xFFFFFFFFFFFFFFFF DUP3 GT OR ISZERO PUSH2 0x996 JUMPI PUSH2 0x995 PUSH2 0x9FC JUMP JUMPDEST JUMPDEST DUP1 PUSH1 0x40 MSTORE POP POP POP JUMP JUMPDEST PUSH1 0x0 PUSH2 0x9AA DUP3 PUSH2 0x9B1 JUMP JUMPDEST SWAP1 POP SWAP2 SWAP1 POP JUMP JUMPDEST PUSH1 0x0 PUSH2 0x9BC DUP3 PUSH2 0xA50 JUMP JUMPDEST SWAP1 POP SWAP2 SWAP1 POP JUMP JUMPDEST PUSH1 0x0 DUP2 SWAP1 POP SWAP2 SWAP1 POP JUMP JUMPDEST PUSH32 0x4E487B7100000000000000000000000000000000000000000000000000000000 PUSH1 0x0 MSTORE PUSH1 0x22 PUSH1 0x4 MSTORE PUSH1 0x24 PUSH1 0x0 REVERT JUMPDEST PUSH32 0x4E487B7100000000000000000000000000000000000000000000000000000000 PUSH1 0x0 MSTORE PUSH1 0x41 PUSH1 0x4 MSTORE PUSH1 0x24 PUSH1 0x0 REVERT JUMPDEST PUSH1 0x0 DUP1 REVERT JUMPDEST PUSH1 0x0 DUP1 REVERT JUMPDEST PUSH1 0x0 DUP1 REVERT JUMPDEST PUSH1 0x0 DUP1 REVERT JUMPDEST PUSH1 0x0 PUSH1 0x1F NOT PUSH1 0x1F DUP4 ADD AND SWAP1 POP SWAP2 SWAP1 POP JUMP JUMPDEST PUSH1 0x0 DUP2 PUSH1 0x60 SHL SWAP1 POP SWAP2 SWAP1 POP JUMP JUMPDEST PUSH2 0xA66 DUP2 PUSH2 0x8C6 JUMP JUMPDEST DUP2 EQ PUSH2 0xA71 JUMPI PUSH1 0x0 DUP1 REVERT JUMPDEST POP JUMP JUMPDEST PUSH2 0xA7D DUP2 PUSH2 0x8F0 JUMP JUMPDEST DUP2 EQ PUSH2 0xA88 JUMPI PUSH1 0x0 DUP1 REVERT JUMPDEST POP JUMP INVALID LOG2 PUSH5 0x6970667358 0x22 SLT KECCAK256 KECCAK256 0xC4 JUMP SWAP10 PUSH17 0x1A007D15DDD3BEBC13F372293EC9C7B8AA 0x4B SHR SWAP9 PUSH23 0xF9C3553DA4DE64736F6C63430008070033000000000000 "
				},
				"gasEstimates": {
					"creation": {
						"codeDepositCost": "550600",
						"executionCost": "587",
						"totalCost": "551187"
					},
					"external": {
						"createStudent(string,uint256)": "infinite",
						"getStudent(bytes32)": "infinite",
						"idToStudent(bytes32)": "infinite",
						"students(uint256)": "infinite"
					}
				},
				"methodIdentifiers": {
					"createStudent(string,uint256)": "74a11638",
					"getStudent(bytes32)": "427867a5",
					"idToStudent(bytes32)": "aacfbff8",
					"students(uint256)": "06ead22e"
				}
			},
			"storageLayout": {
				"storage": [
					{
						"astId": 13,
						"contract": "contracts/4_Student.sol:Student",
						"label": "idToStudent",
						"offset": 0,
						"slot": "0",
						"type": "t_mapping(t_bytes32,t_struct(Student)8_storage)"
					},
					{
						"astId": 17,
						"contract": "contracts/4_Student.sol:Student",
						"label": "students",
						"offset": 0,
						"slot": "1",
						"type": "t_array(t_struct(Student)8_storage)dyn_storage"
					}
				],
				"types": {
					"t_array(t_struct(Student)8_storage)dyn_storage": {
						"base": "t_struct(Student)8_storage",
						"encoding": "dynamic_array",
						"label": "struct Student.Student[]",
						"numberOfBytes": "32"
					},
					"t_bytes32": {
						"encoding": "inplace",
						"label": "bytes32",
						"numberOfBytes": "32"
					},
					"t_mapping(t_bytes32,t_struct(Student)8_storage)": {
						"encoding": "mapping",
						"key": "t_bytes32",
						"label": "mapping(bytes32 => struct Student.Student)",
						"numberOfBytes": "32",
						"value": "t_struct(Student)8_storage"
					},
					"t_string_storage": {
						"encoding": "bytes",
						"label": "string",
						"numberOfBytes": "32"
					},
					"t_struct(Student)8_storage": {
						"encoding": "inplace",
						"label": "struct Student.Student",
						"members": [
							{
								"astId": 3,
								"contract": "contracts/4_Student.sol:Student",
								"label": "studentId",
								"offset": 0,
								"slot": "0",
								"type": "t_bytes32"
							},
							{
								"astId": 5,
								"contract": "contracts/4_Student.sol:Student",
								"label": "name",
								"offset": 0,
								"slot": "1",
								"type": "t_string_storage"
							},
							{
								"astId": 7,
								"contract": "contracts/4_Student.sol:Student",
								"label": "age",
								"offset": 0,
								"slot": "2",
								"type": "t_uint256"
							}
						],
						"numberOfBytes": "96"
					},
					"t_uint256": {
						"encoding": "inplace",
						"label": "uint256",
						"numberOfBytes": "32"
					}
				}
			},
			"userdoc": {
				"kind": "user",
				"methods": {},
				"version": 1
			}
		}
	}
}